:100000001CC100004AC1000048C1000046C10000F8
:1000100044C1000042C1000040C100003EC10000D8
:100020003CC100003AC1000038C1000036C10000E8
:1000300034C1000032C1000030C100002EC10000F8
:100040002CC100002AC1000028C1000026C1000008
:1000500024C1000022C1000020C1000068C60000C9
:100060001CC1000081C2000056C2000016C1000081
:1000700014C1000012C1000010C100000EC1000038
:100080000CC100000AC1000008C1000006C1000048
:1000900004C1000002C1000000C10000FEC0000059
:1000A000FCC00000FAC00000F8C00000F6C000006C
:1000B000F4C00000F2C00000F0C00000EEC000007C
:1000C000ECC00000EAC00000E8C00000E6C000008C
:1000D000E4C00000E2C00000E0C00000DEC000009C
:1000E000DCC0000008000000BE922449123EABAA0A
:1000F000AA2ABECDCCCC4C3E00000080BEABAAAA42
:10010000AA3E00000000BF000000803F0000000089
:1001100000084178D3BB4387D1133D190E3CC3BDC2
:100120004282AD2B3E68EC8276BED98FE1A93E4C6F
:1001300080EFFFBE01C4FF7F3F0000000000005EB3
:10014000BCE2613FDD83C29C7E20A3FD1F41009D78
:1001500023BE46DB65F88C11AF32CA57E974000044
:100160002200250028002B002E003100340002015F
:100170000000050108010B010000210024002700F8
:100180002A002D00300033000101000004010701A6
:100190000A01000020002300260029002C002F0067
:1001A00032000001000003010601090105050505F3
:1001B000070508080808020202020A0A08080404DF
:1001C000040401010101010101010303030303030D
:1001D0000303040707070C0C0C0C0C0C0C0C02029C
:1001E000020206060606060606060B0B0B0B0B0B99
:1001F0000B0B010210202008081020401020408026
:1002000002010201080402010102040810204080DA
:100210008040201008040201800402018040201068
:1002200008040201080402010102040810204080B1
:1002300001020408102040807F0A11241FBECFEF66
:10024000D1E2DEBFCDBF00E00CBF13E0A0E0B2E022
:10025000EEE0FCE100E00BBF02C007900D92AC3273
:10026000B107D9F724E0ACE2B3E001C01D92A4309D
:10027000B207E1F711E0CDE1D1E000E006C021973F
:100280000109802FFE010E94F90DCC31D10780E0D9
:100290000807A9F796D50C94050EB2CECF92DF923F
:1002A000EF92FF920F931F93CF93DF936C017A012C
:1002B0008B01C0E0D0E0CE15DF0581F0D8016D9153
:1002C0008D01D601ED91FC910190F081E02DC601E8
:1002D0001995892B11F02196EECF7E01C701DF9190
:1002E000CF911F910F91FF90EF90DF90CF900895E5
:1002F000089580E090E00895FC01538D448D252FF2
:1003000030E0842F90E0821B930B541710F0CF96AF
:10031000089501970895FC01918D828D981761F0E1
:10032000828DDF01A80FB11D5D968C91928D9F5F2C
:100330009F73928F90E008958FEF9FEF0895FC01D7
:10034000918D828D981731F0828DE80FF11D858D8A
:1003500090E008958FEF9FEF0895FC01918D228D1D
:10036000892F90E0805C9F4F821B91098F739927A2
:10037000089580E493E0F1DF21E0892B09F420E087
:10038000822F0895FC01848DDF01A80FB11DA35AAF
:10039000BF4F2C91848D90E001968F739927848FA5
:1003A000A689B7892C93A089B1898C9183708064C8
:1003B0008C93938D848D981306C00288F389E02D69
:1003C00080818F7D80830895EF92FF920F931F931A
:1003D000CF93DF93EC0181E0888F9B8D8C8D9813F8
:1003E00005C0E889F989808185FD25C0F62E0B8D31
:1003F00010E00F5F1F4F0F731127E02E8C8DE81256
:100400000BC00FB607FCFACFE889F989808185FF18
:10041000F5CFCE01B7DFF2CF8B8DFE01E80FF11DD6
:10042000E35AFF4FF0829FB7F8940B8FEA89FB895C
:10043000808180620AC09FB7F894EE89FF8960834B
:10044000E889F98980818370806480839FBF81E01F
:1004500090E0DF91CF911F910F91FF90EF90089561
:10046000CF93DF93EC01888D8823C1F0EA89FB8963
:10047000808185FD05C0A889B9898C9186FD0EC053
:100480000FB607FCF5CF808185FFF2CFA889B98927
:100490008C9185FFEDCFCE0175DFE8CFDF91CF9155
:1004A000089580E090E0892B19F063DF811125C069
:1004B00080E090E0892B41F080E090E0892B21F0F2
:1004C0000E94000081111CC080E090E0892B41F067
:1004D00080E090E0892B21F00E940000811113C080
:1004E00080E090E0892BA1F080E090E0892B81F002
:1004F0000E94000081110AC008950E940000D8CF18
:100500000E940000E1CF0E940000EACF0C9400009E
:1005100008950E94010E1F920F920FB60F921124A0
:100520000BB60F922F933F934F935F936F937F93ED
:100530008F939F93AF93BF93EF93FF9380E493E0E8
:1005400021DFFF91EF91BF91AF919F918F917F91AB
:100550006F915F914F913F912F910F900BBE0F9034
:100560000FBE0F901F9018951F920F920FB60F920B
:1005700011240BB60F922F938F939F93EF93FF93BA
:10058000E0915003F09151038081E0915603F09186
:10059000570382FD12C09081809159038F5F8F7342
:1005A00020915A03821751F0E0915903F0E0E05C8A
:1005B000FC4F958F8093590301C08081FF91EF918B
:1005C0009F918F912F910F900BBE0F900FBE0F90A8
:1005D0001F901895DC0180E0615098F02D91982FC4
:1005E0009227E92FEF70F0E0E25CFE4F24919295A4
:1005F0009F70E92FF0E0E25BFE4FE491822F8E279F
:10060000EBCF0895FC0190810180F281E02DF894F8
:100610008181892B81832281892F809528232283C0
:10062000A7E0B0E01197F1F7218182238183A3E253
:10063000B0E01197F1F780817894EFECF0E031971A
:10064000F1F7982381E009F480E00895FC0190819E
:100650000180F281E02D892F809560FF12C0F8940F
:100660002281822382838181892B8183A3E2B0E06E
:100670001197F1F78281982B9283789487ED90E01F
:1006800011C0F8942281822382838181892B818306
:10069000AFEFB0E01197F1F78281982B92837894B5
:1006A0008FE090E00197F1F70895DF92EF92FF92CB
:1006B0000F931F93CF93DF93EC01D62EE42E08E027
:1006C00010E0FF24F39461E08D2D8F2109F460E0A8
:1006D000CE01BCDFFF0C01501109A9F7E11010C0D9
:1006E000F894E981FA8191818881809589238183B9
:1006F000E981FA8192818881809589238283789427
:10070000DF91CF911F910F91FF90EF90DF900895AF
:10071000EF92FF920F931F93CF93DF938C017B0196
:1007200040E065E5C2DFE70188E0E80EF11C699171
:1007300040E0C801BADFCE15DF05C9F7DF91CF91E0
:100740001F910F91FF90EF900895DC012C9111966D
:10075000ED91FC911297F8948181922F90958923C5
:10076000818378948DE743E050E0815021F1DA01F4
:100770001197F1F730813223C1F3F89482818923F4
:1007800082838181822B81837894ABE7B7E01197D4
:10079000F1F7F89481819823918383E191E00197A7
:1007A000F1F78081282381E009F080E07894E3E686
:1007B000F6E03197F1F708953FB7F8948091F2038E
:1007C0009091F303A091F403B091F50326B5A89B93
:1007D00005C02F3F19F00196A11DB11D3FBFBA2FD3
:1007E000A92F982F8827820F911DA11DB11DBC0133
:1007F000CD0142E0660F771F881F991F4A95D1F7F8
:100800000895009761F0FC0101900020E9F731970D
:10081000AF01481B590BBC0180E493E03FCD80E061
:1008200090E008958F929F92AF92BF920F931F9383
:10083000CF93DF93CDB7DEB7A1970FB6F894DEBFA5
:100840000FBECDBF19A2423008F44AE08E010F5D01
:100850001F4F842E912CA12CB12CA50194010E9434
:10086000C30DE62FB901CA0101501109EA3014F491
:10087000E05D01C0E95CD801EC93232B242B252BF0
:1008800061F7C801BEDFA1960FB6F894DEBF0FBEB8
:10089000CDBFDF91CF911F910F91BF90AF909F90EF
:1008A0008F9008958F929F92AF92BF92CF92DF92D6
:1008B000EF92FF920F931F93CF93DF936B017C0115
:1008C000142F9B01AC010E94790D882319F08FE150
:1008D00093E026C046015701E894B7F82FEF3FEFA9
:1008E0004FE75FE7C501B4010E94790D81110CC08B
:1008F0002FEF3FEF4FE75FE7C501B40104D71816AC
:100900001CF483E293E00CC02FEF3FEF4FE75FE46E
:10091000C701B6010E94CD0C18167CF487E293E063
:10092000DF91CF911F910F91FF90EF90DF90CF90CB
:10093000BF90AF909F908F9064CF2FEF3FEF4FE726
:100940005FECC701B601DFD687FDE8CF20E030E0DD
:10095000A901C701B601D7D687FF0AC06DE280E4BE
:1009600093E032DDEC01F7FAF094F7F8F09402C06E
:10097000C0E0D0E000E060E070E080E09FE31017AE
:1009800039F020E030E040E251E4C1D60F5FF7CF0C
:10099000A701960154D66B017C0121D74B015C0164
:1009A0004AE040DFC80FD91F112381F1C501B4010E
:1009B00042D79B01AC01C701B60140D66B017C0157
:1009C0006EE280E493E000DDC80FD91F20E030E044
:1009D00040E251E4C701B6010E94160D4B015C01D3
:1009E000FED66B01E12CF12C4AE0C701B6011ADFFB
:1009F000C80FD91FC701B6011ED79B01AC01C501A5
:100A0000B4011CD66B017C01115001F7CE01DF91BE
:100A1000CF911F910F91FF90EF90DF90CF90BF90FB
:100A2000AF909F908F900895ECCE8F929F92AF924F
:100A3000BF92CF92DF92EF92FF920F931F93CF93CB
:100A4000DF938C01EB018091E3039091E4037DDE61
:100A5000882309F438C0B8018091E3039091E4033E
:100A600057DE40E06EEB8091E3039091E4031DDEDE
:100A70008E015E0189E0A80EB11C8090E303909086
:100A8000E40388E0C82ED12CF12CEE24E394C401B9
:100A9000B9DD8111FE28EE0CE1E0CE1AD108B9F7DC
:100AA000F801F1928F01EA15FB0539F78091E30314
:100AB0009091E4034ADE813031F468E0CE018ADDB2
:100AC00091E02885281390E0892FDF91CF911F9125
:100AD0000F91FF90EF90DF90CF90BF90AF909F90DD
:100AE0008F900895CF93DF938CDEEC018AEB92E038
:100AF00088DE8C0F9D1FDF91CF910895CF93DF93F8
:100B0000CDB7DEB729970FB6F894DEBF0FBECDBFC5
:100B1000FC0120812031C9F0BE016F5F7F4F85DF6E
:100B2000882389F08D818F3361F020F48F3159F45F
:100B300089E00CC08F3519F08F3739F004C08BE095
:100B400005C08AE003C080E001C08CE029960FB6A2
:100B5000F894DEBF0FBECDBFDF91CF910895BF9255
:100B6000CF92DF92EF92FF920F931F93CF93DF9379
:100B7000EC016B018D85811104C0CE01E6DD811190
:100B800005C01B861D861C8680E05CC040E060EFCF
:100B9000CE018BDD01E0E12CB12C11E0CE0132DD84
:100BA000F82ECE012FDD91E0F91203C08130B1F4AF
:100BB00033C02E2D30E0F8121BC08B85181738F487
:100BC000FE01E20FF31F8381802341F402C08117ED
:100BD00029F0F12C193058F41C8709C0FE01EE0DE4
:100BE000F11D8381802B8383FF24F39409C0B12EF0
:100BF000FE01E20FF31F9381802F80958923838369
:100C00006F2DCE0123DD1F5F000F11F4E39401E08F
:100C100087E08E1508F0C2CF113408F4B2CFBB863E
:100C2000B11002C081E08D878B81882309F4A9CFA0
:100C3000DE011396F6012B968D918193CA17DB077F
:100C4000D9F781E0DF91CF911F910F91FF90EF9045
:100C5000DF90CF90BF900895FF920F931F93CF9393
:100C6000DF938C01F62EE091E303F091E403138609
:100C700015861486DF011B9633961E92EA17FB0732
:100C8000E1F7C0E0B8018091E3039091E40367DFEE
:100C9000D82F882361F0FC1207C067E0C8019ADCF6
:100CA000F8019781891721F0CF5FFC1658F7D0E043
:100CB0008D2FDF91CF911F910F91FF9008958F920B
:100CC0009F92AF92BF92CF92DF92EF92FF926B0111
:100CD0007C0172DD4B015C01C114D104E104F1041B
:100CE000E9F06ADDDC01CB0188199909AA09BB0981
:100CF000883E9340A105B10578F321E0C21AD108DE
:100D0000E108F10888EE880E83E0981EA11CB11C52
:100D1000C114D104E104F10421F7DECFFF90EF907C
:100D2000DF90CF90BF90AF909F908F9008951F92CB
:100D30000F920FB60F9211242F933F938F939F938F
:100D4000AF93BF9380913C0390913D03A0913E03EC
:100D5000B0913F033091F10323E0230F2D3720F4AE
:100D60000196A11DB11D05C026E8230F0296A11D05
:100D7000B11D2093F10380933C0390933D03A09316
:100D80003E03B0933F038091F2039091F303A0914F
:100D9000F403B091F5030196A11DB11D8093F203F8
:100DA0009093F303A093F403B093F503BF91AF9135
:100DB0009F918F913F912F910F900FBE0F901F9099
:100DC0001895CF93DF93CDB7DEB761970FB6F89440
:100DD000DEBF0FBECDBF789484B5826084BD84B57C
:100DE000816084BD85B5826085BD85B5816085BD26
:100DF00080916E00816080936E00109281008091DE
:100E00008100826080938100809181008160809365
:100E10008100809180008160809380008091B1008A
:100E200084608093B1008091B00081608093B000B5
:100E30008091910082608093910080919100816007
:100E400080939100809190008160809390008091C8
:100E5000A10082608093A1008091A10081608093B5
:100E6000A1008091A00081608093A0008091210169
:100E70008260809321018091210181608093210112
:100E80008091200181608093200180917A008460AC
:100E900080937A0080917A00826080937A008091BA
:100EA0007A00816080937A0080917A0080688093D4
:100EB0007A001092C100E0915003F091510382E05A
:100EC0008083E0914C03F0914D031082E0914E033A
:100ED000F0914F038FEC808310925803E0915403FC
:100EE000F091550386E08083E0915203F091530323
:100EF000808180618083E0915203F091530380816F
:100F000088608083E0915203F09153038081806870
:100F10008083E0915203F091530380818F7D808321
:100F200088E192E0DFDD83E492E07EDDE091E3039F
:100F3000F091E403138615861486DF011B96339621
:100F40001E92AE17BF07E1F71092E1031092E20381
:100F500011E0BE016F5F7F4F8091E3039091E40346
:100F6000FEDD882309F454C067E0CE01019632DB30
:100F700098858913EECF8091DD03811122C0809185
:100F8000E3039091E403E1DBBE016F5F7F4F80914B
:100F9000E3039091E403BCDB40E064EB8091E30366
:100FA0009091E40382DB8091E3039091E4032ADBD8
:100FB000082F8091E3039091E403C7DB002309F439
:100FC00095C20091DE03CE01019698DD801718F4DA
:100FD0008091DE0303C0CE01019690DD8093DE0395
:100FE0008091E1038F5F8093E1038981883209F466
:100FF00080C238F4803109F47CC2823209F0A9CF72
:1010000078C28B3309F475C2823409F0A2CF71C261
:1010100087E592E009DD6091E10370E080E090E017
:101020004AE000DC8EE592E05DDD88E692E0FCDCE3
:101030008091DD03882319F08CE792E002C08FE7EE
:1010400092E050DD60E084E393E006DE811103C0AE
:1010500083E892E047DD87EA92E0E6DC04E313E010
:101060007801F8018081803118F485EA92E0DCDCB7
:101070000F5F1F4FF701608170E080E090E040E17A
:10108000D1DBF3E00C331F0759F78AEB92E0B9DBB1
:1010900084E393E033DD893009F48DC0BE016F5FD6
:1010A0007F4F84E393E0C1DC882309F484C08091FE
:1010B0003403803109F47FC08FE18D838091E30395
:1010C0009091E40342DB64E373E08091E303909149
:1010D000E4031EDB40E06EE48091E3039091E403BF
:1010E000E4DA40E06B818091E3039091E403DDDA80
:1010F00040E06C818091E3039091E403D6DA809123
:101100003403803139F040E06D818091E3039091A8
:10111000E403CBDA8091E3039091E40316DB64E30C
:1011200073E08091E3039091E403F2DA4091DD03F0
:1011300068E48091E3039091E403B7DA64E170E03E
:1011400080E090E0BCDD8091DD03882329F06AE037
:1011500070E080E090E0B3DD8091E3039091E403E0
:10116000F4DA8091DE03893008F489E08093DE03AD
:10117000893009F189E08093DE0300E010E080917E
:10118000E10390E008171907B4F4602FCE010A9626
:1011900063DDF090DE03CE010A96B0DC8F1518F403
:1011A0008091DE0303C0CE010A96A8DC8093DE03A3
:1011B0000F5F1F4FE4CF8DEB92E036DC84E393E0CA
:1011C0009DDC682F70E080E090E04AE02BDB8AEB4A
:1011D00092E017DB10E483ED92E026DC8091E303DC
:1011E0009091E403B2DA40E06CEC8091E3039091DB
:1011F000E4035BDA4091DD0364E48091E3039091C2
:10120000E40353DA8091DF03882309F447C0E091B7
:10121000DE03E950E33040F4F0E0EE0FFF1FE05052
:10122000FE4F6081718102C06EEE72E08091E0033A
:10123000882379F18091DD0381112BC08FB7F89459
:1012400080903C0390903D03A0903E03B0903F03FC
:101250008FBF6B01770FEE08FF088091E303909139
:10126000E403D0D98130D1F02FB7F89480913C03BA
:1012700090913D03A0913E03B0913F032FBF8C1985
:101280009D09AE09BF0988159905AA05BB0528F374
:1012900005C0072E000C880B990B11DD8EEE92E035
:1012A00021DCBE016F5F7F4F84E393E0BEDB8823C8
:1012B00061F12A8130E0C901982F8827990F990F91
:1012C000990F698128E0629FB00111249C01262BAF
:1012D000372B809134038031D9F4688570E08F8199
:1012E000AB01481B5109CA019695982F88279795FD
:1012F000879536D460517109207F53E0220F331F48
:101300005A95E1F7620F731F04C060E874EE01C0E4
:10131000B901613854EE75076CF0072E000C880B8C
:10132000990B8BD220E030E040E05CE37FD36B018F
:101330007C0106C0C12CD12C8EEFE82E82ECF82E59
:1013400083EF92E071DB42E0C701B601ABDA8CEFCC
:1013500092E06ADB26E636E646EE5FE3C701B601B9
:1013600065D320E030E040E052E469D142E09ADA0F
:101370008AEB92E046DA80917B00886080937B0064
:1013800010937C0080917A00806480937A00809131
:101390007A0086FDFCCF609178008091790070E042
:1013A000782B072E000C880B990B47D26B017C0120
:1013B00020E030E44CE156E439D34B015C01A70155
:1013C000960160E070EC8FE794E438D19B01AC01AA
:1013D000C501B4019CD160933003709331038093B5
:1013E00032039093330386E093E01EDB6091300379
:1013F00070913103809132039091330342E052DACD
:101400008AEB92E0FED960913003709131038091B4
:10141000320390913303CAD26B017C012CE63FEC7E
:1014200048E554E303D3A701960100D3A701960131
:10143000FDD24B015C0126ED34E649E759E3C701D3
:10144000B601F4D22BEC38E444E85AE3F8D09B011F
:10145000AC01C501B401F3D09B01AC0160E070E0C8
:1014600080E89FE354D123E333E948E853E4E6D02E
:1014700020E030E040E151E4D9D220E030E040EA21
:1014800050E445D120E030E040E052E4D8D020E004
:1014900030E040E052E4D2D026E636E646EE5FE3A6
:1014A00036D160932C0370932D0380932E03909379
:1014B0002F038EE093E0B8DA60912C0370912D0336
:1014C00080912E0390912F0342E0ECD98CE193E0C0
:1014D00009DB64EF71E080E090E0F1DB60ED77E044
:1014E00080E090E0ECDB0E94510275CE1093DD03AA
:1014F00068CD8091E2038F5F8093E2032ACDCF9382
:10150000DF93109243031092420388EE93E0A0E031
:10151000B0E08093440390934503A0934603B093B7
:1015200047038AE092E0909341038093400385EC67
:1015300090E090934D0380934C0384EC90E0909363
:101540004F0380934E0380EC90E09093510380937F
:10155000500381EC90E0909353038093520382EC0C
:1015600090E0909355038093540386EC90E0909321
:101570005703809356031092590310925A03109206
:101580005B0310925C03E4EFF1E02491EEEAF1E0FA
:1015900084918823C1F090E0880F991FFC01E858DE
:1015A000FE4FC591D491FC01E25AFE4FA591B49132
:1015B0009FB7F8948881E22FE0958E2388838C91E1
:1015C000E823EC939FBFE4EFF1E0E491E093F603AE
:1015D000EEEAF1E0E491F0E0EE0FFF1FEE56FE4F71
:1015E000859194919093F8038093F70310920104EE
:1015F0001092030410920204E1E0F4E0129283E0FE
:10160000E93FF807D9F786EF93E09093E4038093DE
:10161000E3031092E1031092E2031092DD0389E0EC
:101620008093DE0381E08093DF038093E0031092D8
:10163000F0031092EF03DF91CF9108955058BB272C
:10164000AA270ED070C161D130F066D120F031F4FC
:101650009F3F11F41EF456C10EF4E095E7FB4CC118
:10166000E92F72D180F3BA176207730784079507D1
:1016700018F071F49EF58AC10EF4E0950B2EBA2F86
:10168000A02D0B01B90190010C01CA01A001112488
:10169000FF27591B99F0593F50F4503E68F11A1634
:1016A000F040A22F232F342F4427585FF3CF4695C5
:1016B00037952795A795F0405395C9F77EF41F16E7
:1016C000BA0B620B730B840BBAF09150A1F0FF0FB1
:1016D000BB1F661F771F881FC2F70EC0BA0F621F9D
:1016E000731F841F48F4879577956795B795F7958D
:1016F0009E3F08F0B3CF9395880F08F09927EE0F1F
:10170000979587950895D4D008F481E008950CD07A
:101710000AC102D140F0F9D030F021F45F3F19F056
:10172000EBC0511134C1EEC00FD198F39923C9F326
:101730005523B1F3951B550BBB27AA2762177307D7
:10174000840738F09F5F5F4F220F331F441FAA1F8B
:10175000A9F333D00E2E3AF0E0E830D0915050404B
:10176000E695001CCAF729D0FE2F27D0660F771FF9
:10177000881FBB1F261737074807AB07B0E809F0DB
:10178000BB0B802DBF01FF2793585F4F2AF09E3F70
:10179000510568F0B1C0FBC05F3FECF3983EDCF34D
:1017A000869577956795B795F7959F5FC9F7880FE9
:1017B000911D9695879597F90895E1E0660F771F3B
:1017C000881FBB1F621773078407BA0720F0621BCC
:1017D000730B840BBA0BEE1F88F7E0950895BCD00D
:1017E00088F09F5790F0B92F9927B751A0F0D1F00A
:1017F000660F771F881F991F1AF0BA95C9F712C094
:10180000B13081F0C3D0B1E00895C0C0672F782F08
:101810008827B85F39F0B93FCCF3869577956795FF
:10182000B395D9F73EF490958095709561957F4F6B
:101830008F4F9F4F0895E89409C097FB3EF4909511
:101840008095709561957F4F8F4F9F4F9923A9F099
:10185000F92F96E9BB279395F69587957795679528
:10186000B795F111F8CFFAF4BB0F11F460FF1BC06C
:101870006F5F7F4F8F4F9F4F16C0882311F096E9FF
:1018800011C0772321F09EE8872F762F05C06623AD
:1018900071F096E8862F70E060E02AF09A95660F66
:1018A000771F881FDAF7880F9695879597F908951F
:1018B000990F0008550FAA0BE0E8FEEF1616170661
:1018C000E807F907C0F012161306E407F50798F0C9
:1018D000621B730B840B950B39F40A2661F0232BE2
:1018E000242B252B21F408950A2609F4A140A6955E
:1018F0008FEF811D811D089597F99F6780E870E043
:1019000060E008959FEF80EC089500240A94161675
:10191000170618060906089500240A9412161306DD
:10192000140605060895092E0394000C11F488236B
:1019300052F0BB0F40F4BF2B11F460FF04C06F5F87
:101940007F4F8F4F9F4F089557FD9058440F551F5D
:1019500059F05F3F71F04795880F97FB991F61F031
:101960009F3F79F087950895121613061406551FA8
:10197000F2CF4695F1DF08C0161617061806991F14
:10198000F1CF86957105610508940895E894BB2709
:1019900066277727CB0197F908958ADF08F48FEF40
:1019A00008950EF0AAC0AECF6894A6CFD5DFC8F3D5
:1019B0009923D1F3C6F3DF93CF931F930F93FF9235
:1019C000C92FDD2788232AF02197660F771F881FEC
:1019D000DAF720E030E040E85FEB9FE3883920F061
:1019E000803E30F021968F772ADEE4EEF0E003C0EF
:1019F00026DEE1E1F1E08FD08B01BE01EC01FB2E90
:101A00006F5771097595771F880B990B16DF28E1C1
:101A100032E741E35FE316D0AF2D9801AE01FF90AE
:101A20000F911F91CF91DF911BDE7DCF0BD07BCF2C
:101A30006CDF28F071DF18F0952309F05DCF62CFDD
:101A40001124A5CF81DFA0F3959FD1F3950F50E02E
:101A5000551F629FF001729FBB27F00DB11D639F60
:101A6000AA27F00DB11DAA1F649F6627B00DA11D06
:101A7000661F829F2227B00DA11D621F739FB00DAC
:101A8000A11D621F839FA00D611D221F749F33271C
:101A9000A00D611D231F849F600D211D822F762FB5
:101AA0006A2F11249F5750408AF0E1F088234AF0B2
:101AB000EE0FFF1FBB1F661F771F881F91505040FE
:101AC000A9F79E3F510570F017CF61CF5F3FECF350
:101AD000983EDCF3869577956795B795F795E795EA
:101AE0009F5FC1F7FE2B880F911D9695879597F9FB
:101AF0000895DEDE880B990B08959F3F31F09150D9
:101B000020F4879577956795B795880F911D9695E1
:101B1000879597F90895DF93CF931F930F93FF92C3
:101B2000EF92DF927B018C01689405C0DA2EEF0101
:101B300089DFFE01E894A591259135914591559154
:101B4000AEF3EF018DDDFE019701A801DA9479F77C
:101B5000DF90EF90FF900F911F91CF91DF9108954B
:101B600097FB072E16F4009406D077FD08D02DD0F1
:101B700007FC05D03EF4909581959F4F0895709590
:101B800061957F4F0895A1E21A2EAA1BBB1BFD0190
:101B90000DC0AA1FBB1FEE1FFF1FA217B307E4074C
:101BA000F50720F0A21BB30BE40BF50B661F771FA4
:101BB000881F991F1A9469F7609570958095909584
:101BC0009B01AC01BD01CF010895AA1BBB1B51E1D4
:101BD00007C0AA1FBB1FA617B70710F0A61BB70B9D
:101BE000881F991F5A95A9F780959095BC01CD0142
:101BF0000895EE0FFF1F881F8BBF0790F691E02D11
:0E1C0000199481E090E0F89400C0F894FFCFB2
:101C0E005E00BC00770100000000E4014E017C0183
:101C1E003002AD018B019F0144616C6C61732054E5
:101C2E00656D706572617475726520494320436FEE
:101C3E006E74726F6C204C696272617279204465A9
:101C4E006D6F004C6F636174696E672064657669B1
:101C5E006365732E2E2E00466F756E642000206411
:101C6E006576696365732E00506172617369746580
:101C7E0020706F7765722069733A20004F4E004FC7
:101C8E00464600556E61626C6520746F2066696E03
:101C9E0064206164647265737320666F722044659C
:101CAE00766963652030004465766963652030206F
:101CBE00416464726573733A20000D0A00446576C0
:101CCE006963652030205265736F6C7574696F6E31
:101CDE003A200052657175657374696E672074657C
:101CEE006D7065726174757265732E2E2E00444F81
:101CFE004E450054656D7020433A20002054656DAA
:101D0E007020463A2000527468203D203A005465F7
:101D1E006D70657261747572653A20002043006EB5
:0C1D2E00616E00696E66006F7666000052
:020000023000CC
:10E000000D9489F10D94B2F10D94B2F10D94B2F129
:10E010000D94B2F10D94B2F10D94B2F10D94B2F1F0
:10E020000D94B2F10D94B2F10D94B2F10D94B2F1E0
:10E030000D94B2F10D94B2F10D94B2F10D94B2F1D0
:10E040000D94B2F10D94B2F10D94B2F10D94B2F1C0
:10E050000D94B2F10D94B2F10D94B2F10D94B2F1B0
:10E060000D94B2F10D94B2F10D94B2F10D94B2F1A0
:10E070000D94B2F10D94B2F10D94B2F10D94B2F190
:10E080000D94B2F10D94B2F10D94B2F10D94B2F180
:10E090000D94B2F10D94B2F10D94B2F10D94B2F170
:10E0A0000D94B2F10D94B2F10D94B2F10D94B2F160
:10E0B0000D94B2F10D94B2F10D94B2F10D94B2F150
:10E0C0000D94B2F10D94B2F10D94B2F10D94B2F140
:10E0D0000D94B2F10D94B2F10D94B2F10D94B2F130
:10E0E0000D94B2F141546D656761323536300041AF
:10E0F000726475696E6F206578706C6F72657220DE
:10E1000073746B3530305632206279204D4C530099
:10E11000426F6F746C6F616465723E004875683F52
:10E1200000436F6D70696C6564206F6E203D200048
:10E130004350552054797065202020203D20005FF9
:10E140005F4156525F415243485F5F3D2000415658
:10E1500052204C696243205665723D20004743437C
:10E160002056657273696F6E203D20004350552024
:10E1700049442020202020203D20004C6F7720663D
:10E18000757365202020203D20004869676820665F
:10E190007573652020203D200045787420667573D6
:10E1A00065202020203D20004C6F636B2066757336
:10E1B000652020203D20004D617220203720323024
:10E1C000313300312E362E3800342E332E350056A2
:10E1D00023202020414444522020206F7020636F70
:10E1E00064652020202020696E73747275637469E1
:10E1F0006F6E2061646472202020496E74657272B3
:10E20000757074006E6F20766563746F7200726A49
:10E210006D702020006A6D70200057686174207056
:10E220006F72743A00506F7274206E6F7420737541
:10E2300070706F72746564004D7573742062652030
:10E2400061206C6574746572002000577269747483
:10E25000696E672045450052656164696E672045B7
:10E26000450045452065727220636E743D00504F35
:10E27000525400303D5A65726F2061646472003FF1
:10E280003D43505520737461747300403D454550C3
:10E29000524F4D207465737400423D426C696E6B41
:10E2A000204C454400453D44756D70204545505215
:10E2B0004F4D00463D44756D7020464C415348001B
:10E2C000483D48656C70004C3D4C69737420492F83
:10E2D0004F20506F72747300513D51756974005234
:10E2E0003D44756D702052414D00563D73686F7707
:10E2F00020696E7465727275707420566563746FF0
:10E30000727300593D506F727420626C696E6B00BD
:10E310002A0011241FBECFEFD1E2DEBFCDBF01E046
:10E320000CBF12E0A0E0B2E0EEE1FDEF03E00BBFB6
:10E3300002C007900D92A030B107D9F712E0A0E01B
:10E34000B2E001C01D92AE30B107E1F70F9460F367
:10E350000D948DFE01E20EBF0FEF0DBF11241FBE05
:10E360000D9460F30D9400F020E030E040ED57E0B4
:10E3700005C0FA013197F1F72F5F3F4F2817390792
:10E38000C0F308959C01260F311DC901A0E0B0E043
:10E390002F5F3F4FABBFFC018791882361F08093D3
:10E3A000C6008091C00086FFFCCF8091C0008064D1
:10E3B0008093C000EACF08958DE08093C6008091DD
:10E3C000C00086FFFCCF8091C00080648093C000B5
:10E3D0008AE08093C6008091C00086FFFCCF8091C8
:10E3E000C00080648093C00008950F94C2F10F9420
:10E3F000DCF10895FC019081992359F09093C600B7
:10E400008091C00086FFFCCF8091C0008064809323
:10E41000C0003196992379F70895282F982F929567
:10E420009F70892F805D8A3308F0895F8093C600D2
:10E430008091C00086FFFCCF8091C00080648093F3
:10E44000C000822F8F70982F905D9A3308F0995FEB
:10E450009093C6008091C00086FFFCCF8091C000E1
:10E4600080648093C00008959C01FB01853691056E
:10E470001CF46330710594F0C90164E670E00F94F8
:10E480002EFE605D7F4F6093C6008091C00086FFC6
:10E49000FCCF8091C00080648093C0002B30310598
:10E4A00014F43297B4F0C90164E670E00F942EFEC4
:10E4B0006AE070E00F942EFE605D7F4F6093C600AF
:10E4C0008091C00086FFFCCF8091C0008064809363
:10E4D000C000C9016AE070E00F942EFEC0968093E0
:10E4E000C6008091C00086FFFCCF8091C000806490
:10E4F0008093C00008951F93182F8EE692EE60E07F
:10E500000F94C2F11093C6008091C00086FFFCCF2B
:10E510008091C00080648093C0000F94DCF11F9153
:10E5200008952F923F924F925F926F927F928F92B7
:10E530009F92AF92BF92CF92DF92EF92FF920F9392
:10E540001F93DF93CF93CDB7DEB762970FB6F894E2
:10E55000DEBF0FBECDBF382E622ECA01DB015C01CB
:10E560006D01772420E2222E2E010894411C511CBB
:10E570008BC081E0A81680E0B80681E0C80680E084
:10E58000D80628F0C601AA27BB270F940DF2BB2797
:10E59000AD2D9C2D8B2D0F940DF28A2D0F940DF225
:10E5A0002092C6008091C00086FFFCCF8091C00001
:10E5B00080648093C0009DE29093C6008091C0006B
:10E5C00086FFFCCF8091C00080648093C0002092C1
:10E5D000C6008091C00086FFFCCF8091C00080649F
:10E5E0008093C00019828601750188249924A1E0D6
:10E5F0003A1651F03A1620F0B2E03B1661F409C029
:10E600000BBFF701779007C0C7010F9477FE782EF4
:10E6100002C0F7017080872D0F940DF22092C60082
:10E620008091C00086FFFCCF8091C0008064809301
:10E63000C000872D8052F401EF70F0708F3520F408
:10E64000E40DF51D708204C0E40DF51D8EE280839B
:10E650000894E11CF11C011D111D0894811C911CE2
:10E6600090E18916910409F0C2CF80E190E0A0E02A
:10E67000B0E0A80EB91ECA1EDB1E198AC2010F9493
:10E68000FAF10F94DCF16A94662009F072CF629679
:10E690000FB6F894DEBF0FBECDBFCF91DF911F91B3
:10E6A0000F91FF90EF90DF90CF90BF90AF909F9031
:10E6B0008F907F906F905F904F903F902F90089534
:10E6C0002F923F924F925F926F927F928F929F9282
:10E6D000AF92BF92CF92DF92EF92FF920F931F9370
:10E6E000DF93CF93CDB7DEB7CD53D1400FB6F894BB
:10E6F000DEBF0FBECDBF01E20EBF0FEF0DBF94B75F
:10E70000F894A89514BE80916000886180936000A1
:10E7100010926000789493FF05C0E0910002F091A0
:10E7200001021995279A2F9A8091C00082608093E8
:10E73000C00080E18093C40088E18093C1000000A4
:10E74000EE24FF24870144E0A42EB12CCC24DD2448
:10E7500024C0C5010197F1F70894E11CF11C011DCB
:10E76000111D21E2E2162EE4F20620E0020720E06D
:10E77000120718F031E0C32ED12CC801B70127ECE5
:10E780003BE140E050E00F9441FE611571058105C9
:10E79000910519F485B1805885B98091C00087FD35
:10E7A00003C0C114D104A9F2A6014F5F5F4FC25E3E
:10E7B000DE4F59834883CE51D140C25EDE4F8881FF
:10E7C0009981CE51D140019711F00D9410FEC05D9A
:10E7D000DE4F19821882C053D14060E0C15DDE4F28
:10E7E0001882CF52D14088249924C35DDE4F19820C
:10E7F0001882CD52D140C05EDE4F188219821A8233
:10E800001B82C052D140CE5CDE4F188219821A8220
:10E810001B82C253D140EE24FF2487010BBFF701B6
:10E8200007911691C45CDE4F19830883CC53D14005
:10E830000D940BFEC25EDE4F28813981CE51D1404E
:10E840002130310509F52091C600C25EDE4F1982E4
:10E850001882CE51D14022C02F5F3F4F4F4F5F4FA4
:10E86000213082E138078AE7480780E0580780F0C6
:10E87000C45CDE4FE881F981CC53D140EF5FFF4F9C
:10E8800019F0EE27FF27099420E030E040E050E047
:10E890008091C00087FFE0CF2091C600C35DDE4FAE
:10E8A00048815981CD52D1404F5F5F4FC35DDE4FEC
:10E8B00059834883CD52D140213209F063C64A3092
:10E8C000510508F05FC60894811C911C53E0851621
:10E8D000910409F059C600E010E018C081E280936D
:10E8E000C6008091C00086FFFCCF8091C00080648C
:10E8F0008093C0002F5F3F4F2931310579F70F9486
:10E90000DCF10F5F1F4F0530110519F020E030E0FA
:10E91000E5CF10920A0210920B0210920C02109294
:10E920000D02109206021092070210920802109235
:10E930000902109202021092030210920402109235
:10E9400005028FEE90EE60E00F94F5F180E191EE1C
:10E9500060E00F94C2F18091C00087FFFCCF9091DE
:10E96000C600903608F09F759032B8F09093C600BC
:10E970008091C00086FFFCCF8091C00080648093AE
:10E98000C000A0E2A093C6008091C00086FFFCCF2B
:10E990008091C00080648093C000983409F4D7C18E
:10E9A0009934B8F4923409F459C1933458F490333B
:10E9B00019F1903308F4E3C59F33A1F1903409F0C5
:10E9C000DEC5BDC0953409F470C1963409F0D7C5D1
:10E9D00098C1923509F42BC2933538F49C3409F46C
:10E9E000F5C1913509F0CBC518C2963509F445C279
:10E9F000993509F0C4C567C483E792EE62E00F94CD
:10EA0000F5F110920602109207021092080210927D
:10EA1000090210920A0210920B0210920C0210923C
:10EA20000D0213C18FE792EE62E00F94F5F18FEEC5
:10EA300090EE60E00F94F5F181E291EE60E00F94CA
:10EA4000C2F187EB91EE60E00F94F5F180E391EE77
:10EA500060E00F94C2F184EE90EE60E00F94F5F167
:10EA60008FE391EE60E00F94C2F186E090E061E008
:10EA700070E00F9434F20F94DCF18DE591EE60E0DC
:10EA80000F94C2F189EC91EE60E00F94F5F18EE401
:10EA900091EE60E00F94C2F183EC91EE60E00F9490
:10EAA000F5F18CE691EE60E00F94C2F18EE10F94E7
:10EAB0000DF288E90F940DF281E00F940DF20F949E
:10EAC000DCF18BE791EE60E00F94C2F119E0E0E039
:10EAD000F0E010935700E4918E2F0F940DF20F94F5
:10EAE000DCF18AE891EE60E00F94C2F1E3E0F0E03F
:10EAF00010935700E4918E2F0F940DF20F94DCF1D8
:10EB000089E991EE60E00F94C2F1E2E0F0E0109349
:10EB10005700E4918E2F0F940DF20F94DCF188EAE8
:10EB200091EE60E00F94C2F1E1E0F0E01093570045
:10EB30001491812F0F940DF20F94DCF107CF8BE825
:10EB400092EE62E00F94F5F18BE492EE60E00F94A8
:10EB5000F5F10F94DCF100E010E019C0C8016F2D51
:10EB60000F947FFEFF2031F489E492EE60E00F9471
:10EB7000C2F10BC0F092C6008091C00086FFFCCFAE
:10EB80008091C00080648093C0000F5F1F4FC80158
:10EB900081519F41A0E0B0E0ABBFFC01F790BAE229
:10EBA000FB1621F0E2E000301E07C1F60F94DCF105
:10EBB0000F94DCF187E592EE60E00F94F5F10F948D
:10EBC000DCF1CC24DD2400E010E01EC0C8010F946D
:10EBD00077FEF82E882331F489E492EE60E00F94FA
:10EBE000C2F10BC08093C6008091C00086FFFCCFAD
:10EBF0008091C00080648093C000FE1419F00894D6
:10EC0000C11CD11C0F5F1F4FC80181519F41A0E063
:10EC1000B0E0ABBFFC01E790FAE2EF1621F022E092
:10EC20000030120799F60F94DCF10F94DCF182E6C4
:10EC300092EE60E00F94C2F1C60161E070E00F94C3
:10EC400034F20F94DCF10F94DCF110920202109276
:10EC50000302109204021092050278CE89E992EE26
:10EC600062E00F94F5F1279A2F9A16C02F9880E052
:10EC700090E0E0EDF7E03197F1F7019684369105E9
:10EC8000C1F72F9A80E090E0E0EDF7E03197F1F7DF
:10EC9000019684369105C1F78091C00087FFE6CFC9
:10ECA0008091C00087FFFCCF64C485EA92EE62E0E9
:10ECB0000F94F5F140910202509103026091040219
:10ECC0007091050281E020E10F9491F2809102029F
:10ECD00090910302A0910402B091050280509F4FD1
:10ECE000AF4FBF4F8093020290930302A0930402A0
:10ECF000B093050280509041A040B04008F426CE69
:10ED0000A4CF83EB92EE62E00F94F5F140910602FE
:10ED100050910702609108027091090280E020E1A1
:10ED20000F9491F28091060290910702A09108023F
:10ED3000B091090280509F4FAF4FBF4F80930602A2
:10ED400090930702A0930802B0930902FFCD80ECD4
:10ED500092EE62E00F94F5F183E792EE60E00F949B
:10ED6000F5F18FE792EE60E00F94F5F18BE892EE0B
:10ED700060E00F94F5F189E992EE60E00F94F5F10F
:10ED800085EA92EE60E00F94F5F183EB92EE60E09D
:10ED90000F94F5F180EC92EE60E00F94F5F187ECC2
:10EDA00092EE60E00F94F5F188ED92EE60E00F9442
:10EDB000F5F18FED92EE60E00F94F5F18AEE92EEB0
:10EDC00060E00F94F5F183E093EEBDCD87EC92EE19
:10EDD00062E00F94F5F181E40F947BF282E40F94EA
:10EDE0007BF283E40F947BF284E40F947BF285E45E
:10EDF0000F947BF286E40F947BF287E40F947BF20E
:10EE000088E40F947BF28AE40F947BF28BE40F94F6
:10EE10007BF28CE40F947BF299CD88ED92EE62E068
:10EE20000F94F5F1772473948824992409C48FED05
:10EE300092EE62E00F94F5F140910A0250910B02BC
:10EE400060910C0270910D0282E020E10F9491F22A
:10EE500080910A0290910B02A0910C02B0910D02D8
:10EE600080509F4FAF4FBF4F80930A0290930B0289
:10EE7000A0930C02B0930D0269CD8AEE92EE62E08F
:10EE80000F94F5F184EE90EE60E00F94F5F18FECC5
:10EE900091EE60E00F94F5F1662477244301CC5D98
:10EEA000DE4F19821882C452D140D401C301B695F5
:10EEB000A79597958795CA5DDE4F88839983AA8326
:10EEC000BB83C652D140CC5DDE4FA881B981C4520C
:10EED000D1401196CC5DDE4FB983A883C452D14096
:10EEE000CD0162E070E00F9434F2B0E2B093C6005E
:10EEF0008091C00086FFFCCF8091C0008064809329
:10EF0000C000EDE2E093C6008091C00086FFFCCF18
:10EF10008091C00080648093C000F0E2F093C6004E
:10EF20008091C00086FFFCCF8091C00080648093F8
:10EF3000C000CA5DDE4FE880F9800A811B81C6529D
:10EF4000D140BB27A12F902F8F2D0F940DF2CA5DBA
:10EF5000DE4F8881C652D1400F940DF2B0E2FB2EF5
:10EF6000F092C6008091C00086FFFCCF8091C00067
:10EF700080648093C0000DE30093C6008091C000C0
:10EF800086FFFCCF8091C00080648093C00010E2B7
:10EF90001093C6008091C00086FFFCCF8091C00016
:10EFA00080648093C0008BBEF3012791C65DDE4F65
:10EFB0002883CA52D140A22EBB24CC24DD2408943D
:10EFC000611C711C811C911C8BBEF3018791282E42
:10EFD0003324442455240894611C711C811C911C09
:10EFE0008BBEF3013791C55DDE4F3883CB52D140E4
:10EFF0000894611C711C811C911C8BBEF30147910C
:10F00000C45DDE4F4883CC52D140ADEFEA2EAFEF66
:10F01000FA2EAFEF0A2FAFEF1A2F6E0C7F1C801E57
:10F02000911E142D032DF22CEE24EA0CFB1C0C1D5A
:10F030001D1D0F940DF220E22093C6008091C000A8
:10F0400086FFFCCF8091C00080648093C000C65DC5
:10F05000DE4F8881CA52D1400F940DF230E23093D6
:10F06000C6008091C00086FFFCCF8091C000806404
:10F070008093C000C45DDE4F8881CC52D1400F9494
:10F080000DF240E24093C6008091C00086FFFCCFA5
:10F090008091C00080648093C000C55DDE4F888190
:10F0A000CB52D1400F940DF250E25093C6008091A4
:10F0B000C00086FFFCCF8091C00080648093C000B8
:10F0C0008FEFE8168FEFF80680E0080780E018075A
:10F0D00031F484E092EE60E00F94C2F1DFC0D80119
:10F0E000C7018070907CA070B0708050904CA040A0
:10F0F000B040D1F52FEF3FE340E050E0E222F322B1
:10F1000004231523CA5DDE4FA880B980CA80DB8046
:10F11000C652D140AE0CBF1CC01ED11EAA0CBB1CD7
:10F12000CC1CDD1C8EE092EE60E00F94C2F1BB2798
:10F13000A12F902F8F2D0F940DF28E2D0F940DF285
:10F1400030E23093C6008091C00086FFFCCF8091F2
:10F15000C00080648093C0004EE34093C60080915D
:10F16000C00086FFFCCF87C08EE09EEFA0E0B0E03D
:10F17000E822F9220A231B239CE0E91694E9F90608
:10F1800090E0090790E0190709F088C0C45DDE4FE0
:10F19000A881CC52D140EA2EFF2400E010E0102FCD
:10F1A0000F2DFE2CEE24C55DDE4FB881CB52D14031
:10F1B000EB0EF11C011D111DD601C501817090706F
:10F1C000A070B070DC0199278827E80EF91E0A1F8D
:10F1D0001B1F20EF30E040E050E0A222B322C42207
:10F1E000D52241E1AA0CBB1CCC1CDD1C4A95D1F7F1
:10F1F000EA0CFB1C0C1D1D1D81E090E0A0E0B0E0BE
:10F20000282239224A225B2235E1220C331C441C7D
:10F21000551C3A95D1F7E20CF31C041D151D57013E
:10F220006801AA0CBB1CCC1CDD1C85E192EE60E0E1
:10F230000F94C2F1C801AA27BB270F940DF2BB2778
:10F24000A12F902F8F2D0F940DF28E2D0F940DF274
:10F2500090E29093C6008091C00086FFFCCF809121
:10F26000C00080648093C000AEE3A093C60080918C
:10F27000C00086FFFCCF8091C00080648093C000F6
:10F28000C601AA27BB270F940DF2BB27AD2D9C2DDD
:10F290008B2D0F940DF28A2D0F940DF20F94DCF14B
:10F2A000CC5DDE4FE881F981C452D140F99709F471
:10F2B0004DCBF4E0EF2EF12C012D112D6E0C7F1CA7
:10F2C000801E911EF2CD83E093EE62E00F94F5F183
:10F2D0008AE192EE60E00F94C2F18091C00087FF56
:10F2E000FCCF1091C6001F751093C6008091C0001E
:10F2F00086FFFCCF8091C00080648093C0000F9493
:10F30000DCF1812F81548A3108F036C1163409F4BA
:10F3100095C0173490F4133409F44EC0143430F40B
:10F320001134F1F0123409F01DC130C0143409F465
:10F3300059C0153409F016C16BC01A3409F4C4C0A1
:10F340001B3438F4173409F48FC0183409F00AC19B
:10F35000A1C01B3409F4D2C01C3409F003C1E8C0B9
:10F360008FEF81B90DC082B1809582B980E090E0C5
:10F37000E0EDF7E03197F1F70196883C9105C1F790
:10F380008091C00087FFEFCF12B8EFC08FEF84B934
:10F390000DC085B1809585B980E090E0E0EDF7E0A3
:10F3A0003197F1F70196883C9105C1F78091C00033
:10F3B00087FFEFCF15B8D9C08FEF87B90DC088B1DF
:10F3C000809588B980E090E0E0EDF7E03197F1F7C3
:10F3D0000196883C9105C1F78091C00087FFEFCF6F
:10F3E00018B8C3C08FEF8AB90DC08BB180958BB9A7
:10F3F00080E090E0E0EDF7E03197F1F70196883C8E
:10F400009105C1F78091C00087FFEFCF1BB8ADC059
:10F410008FEF8DB90DC08EB180958EB980E090E0F0
:10F42000E0EDF7E03197F1F70196883C9105C1F7DF
:10F430008091C00087FFEFCF1EB897C08FEF80BBD1
:10F440000DC081B3809581BB80E090E0E0EDF7E0F6
:10F450003197F1F70196883C9105C1F78091C00082
:10F4600087FFEFCF11BA81C08FEF83BB0DC084B38C
:10F47000809584BB80E090E0E0EDF7E03197F1F714
:10F480000196883C9105C1F78091C00087FFEFCFBE
:10F4900014BA6BC08FEF809301010FC080910201FD
:10F4A00080958093020180E090E0E0EDF7E03197F5
:10F4B000F1F70196883C9105C1F78091C00087FF64
:10F4C000EDCF1092020151C08FEF809304010FC065
:10F4D0008091050180958093050180E090E0E0ED4A
:10F4E000F7E03197F1F70196883C9105C1F78091DB
:10F4F000C00087FFEDCF1092050137C08FEF8093DA
:10F5000007010FC08091080180958093080180E079
:10F5100090E0E0EDF7E03197F1F70196883C910536
:10F52000C1F78091C00087FFEDCF109208011DC088
:10F530008FEF80930A010FC080910B01809580931B
:10F540000B0180E090E0E0EDF7E03197F1F70196F4
:10F55000883C9105C1F78091C00087FFEDCF1092E4
:10F560000B0103C085E292EEEEC98091C00087FFD7
:10F57000FCCF8091C600EAC988E392EEE4C98CE131
:10F5800091EEE1C988249924933011F1943028F444
:10F59000913089F09230B8F408C0953061F195301F
:10F5A000F0F0963009F048C043C02B3109F042C951
:10F5B00091E06BE13FC96227C15DDE4F2883CF52E6
:10F5C000D14092E037C9B22FA0E0622793E032C960
:10F5D000822F90E0A82BB92B622794E02BC92E3004
:10F5E00009F039C3622795E0C05DDE4F19821882A9
:10F5F000C053D1401FC9E1E0F0E0EC0FFD1FC05D3A
:10F60000DE4F08811981C053D140E00FF11F2083E4
:10F610000F5F1F4FC05DDE4F19830883C053D14079
:10F6200062270A171B0709F005C9D80196E002C92D
:10F63000261709F010C303C0973009F0FBC87724E0
:10F640009981933109F412C19431C8F4963009F4C8
:10F65000D8C0973050F4923009F406C1933009F4C1
:10F660006DC0913009F059C253C0913109F477C08F
:10F67000923108F0BBC0903109F04FC2F5C098310B
:10F6800009F487C0993150F4953109F4EFC09531F0
:10F6900008F4C6C1963109F040C2C2C19A3109F4DA
:10F6A0006CC09A3108F491C09B3109F45BC09D3164
:10F6B00009F033C29D81903359F48F81882311F46E
:10F6C0009EE11CC0813011F091E018C098E916C08D
:10F6D000892F807591F0903539F4E0E0F0E089E011
:10F6E0008093570094910AC0983539F4E3E0F0E034
:10F6F00089E080935700949101C090E01A821B82A8
:10F700008D818C831D829E831F8227E030E009C299
:10F710001A8288E08B8381E48C8386E58D8382E581
:10F720008E8389E48F8383E5888780E589878FE5E9
:10F730008A8782E38B872BE030E0F3C18A818139AD
:10F7400041F0823941F0803911F48FE005C080E04A
:10F7500003C082E001C08AE01A828B8344C0772410
:10F76000739482C08D81882311F48EE12CC0813086
:10F7700011F081E028C088E926C01A82E1E0F0E0BB
:10F7800089E08093570084918B831C8224E030E0D1
:10F79000C8C18B81803589F48C81883039F4E2E0EE
:10F7A000F0E089E08093570084910DC0E0E0F0E044
:10F7B00089E080935700849106C0E3E0F0E089E09F
:10F7C0008093570084911A82DFCF8D81836C99E0FA
:10F7D000E1E0F0E0082E90935700E89507B600FCB2
:10F7E000FDCF1A821B8223E030E09BC180EC8A832C
:10F7F000CE5CDE4F188219821A821B82C253D1401E
:10F800008EC18A8190E0A0E0B0E0582F44273327D2
:10F8100022278B8190E0A0E0B0E0DC0199278827C7
:10F82000282B392B4A2B5B2B8D8190E0A0E0B0E098
:10F83000282B392B4A2B5B2B8C8190E0A0E0B0E089
:10F84000BA2FA92F982F8827282B392B4A2B5B2BCF
:10F85000220F331F441F551FC05EDE4F288339839C
:10F860004A835B83C052D1401A8259C13A81C95C34
:10F87000DE4F3883C753D140CA5CDE4F1882C6536F
:10F88000D1408B81C82EDD24CA5CDE4F488159816E
:10F89000C653D140C42AD52A933109F082C0CE5C28
:10F8A000DE4F88819981AA81BB81C253D1408050AB
:10F8B000904CA340B04030F583E0CE5CDE4FE88052
:10F8C000F9800A811B81C253D140F70100935B008C
:10F8D00080935700E89507B600FCFDCFCE5CDE4F65
:10F8E000088119812A813B81C253D14000501F4FAA
:10F8F0002F4F3F4FCE5CDE4F088319832A833B8313
:10F90000C253D140C05EDE4F488159816A817B81FC
:10F91000C052D140DE011B9631E08C9111962C91A2
:10F9200011971296C75CDE4F2883C953D140C85C3B
:10F93000DE4F1882C853D14090E0C85CDE4FE881AA
:10F94000F981C853D1408E2B9F2B0C01FA01609393
:10F950005B0030935700E89511244E5F5F4F6F4F67
:10F960007F4F0EEFE02E0FEFF02ECE0CDF1CC114F8
:10F97000D10499F685E0C05EDE4F088119812A81A5
:10F980003B81C052D140F80120935B008093570027
:10F99000E89507B600FCFDCF81E180935700E8951C
:10F9A00035C0C05EDE4F88819981AA81BB81C0527B
:10F9B000D140B695A795979587957C018601ABE0D8
:10F9C000AA2EB12CAC0EBD1E0BC0D5016D915D01F0
:10F9D000C7010F947FFE0894E11CF11C01501040F8
:10F9E0000115110591F7A60160E070E0440F551F65
:10F9F000661F771FC05EDE4FE880F9800A811B8199
:10FA0000C052D1404E0D5F1D601F711F1A82C05E33
:10FA1000DE4F488359836A837B83C052D1407FC0C5
:10FA2000FA80C55CDE4FF882CB53D140C65CDE4F16
:10FA30001882CA53D1408B81C82EDD24C65CDE4FAC
:10FA400008811981CA53D140C02AD12A1A828981DA
:10FA5000BE016D5F7F4F843121F59601C05EDE4FA0
:10FA6000E880F9800A811B81C052D1400BBFF701A9
:10FA700087919691DB018C9311969C936E5F7F4FDB
:10FA8000D801C7010296A11DB11DC05EDE4F88835B
:10FA90009983AA83BB83C052D14022503040F1F6F3
:10FAA00036C0C05EDE4F288139814A815B81C052F9
:10FAB000D1400894C108D108760100E010E0089414
:10FAC000C11CD11C0894E11CF11C011D111DE20E8A
:10FAD000F31E041F151F21BDBB27A52F942F832FB5
:10FAE00082BD2F5F3F4F4F4F5F4FF89A80B5DB01CC
:10FAF0008D93BD012E153F054007510761F7C05E8C
:10FB0000DE4F288339834A835B83C052D1409601FC
:10FB10002D5F3F4FFB01108204C080EC8A8322E0FE
:10FB200030E08BE18093C6008091C00086FFFCCF5F
:10FB30008091C00080648093C000C15DDE4FF88179
:10FB4000CF52D140F093C6008091C00086FFFCCF19
:10FB50008091C00080648093C000432F3093C60022
:10FB60008091C00086FFFCCF8091C00080648093AC
:10FB7000C000922F2093C6008091C00086FFFCCF6A
:10FB80008091C00080648093C0008EE08093C600A6
:10FB90008091C00086FFFCCF8091C000806480937C
:10FBA000C00065E1C15DDE4FE880CF52D1406E25D7
:10FBB00069276427FE01319610C090819093C6009A
:10FBC0008091C00086FFFCCF31968091C000806498
:10FBD0008093C0006927215030402115310569F715
:10FBE0006093C6008091C00086FFFCCF8091C0006A
:10FBF00080648093C00085B1805885B9772081F4F6
:10FC0000C15DDE4F0881CF52D1400F5FC15DDE4F35
:10FC10000883CF52D14090E0A0E0B0E00D941AF4F8
:10FC200027982F9880E090E020ED37E0F901319798
:10FC3000F1F7019684369105C9F700008091C00064
:10FC40008D7F8093C00081E180935700E895EE2777
:10FC5000FF270994FFCF90E00D941AF497FB092E2B
:10FC600007260AD077FD04D02ED006D000201AF443
:10FC7000709561957F4F0895F6F7909581959F4F08
:10FC80000895A1E21A2EAA1BBB1BFD010DC0AA1FDD
:10FC9000BB1FEE1FFF1FA217B307E407F50720F0F5
:10FCA000A21BB30BE40BF50B661F771F881F991F70
:10FCB0001A9469F760957095809590959B01AC01B9
:10FCC000BD01CF010895AA1BBB1B51E107C0AA1FAC
:10FCD000BB1FA617B70710F0A61BB70B881F991FED
:10FCE0005A95A9F780959095BC01CD010895F99991
:10FCF000FECF92BD81BDF89A992780B50895262F31
:10FD0000F999FECF1FBA92BD81BD20BD0FB6F89400
:0EFD1000FA9AF99A0FBE01960895F894FFCF63
:040000033000E000E9
:00000001FF
