:10000000FAC0000028C1000026C1000024C1000081
:1000100022C1000020C100001EC100001CC1000060
:100020001AC1000018C1000016C1000014C1000070
:1000300012C1000010C100000EC100000CC1000080
:100040000AC1000008C1000006C1000004C1000090
:1000500002C1000000C10000FEC00000B9C50000E0
:10006000FAC0000028C60000FDC50000F4C0000072
:10007000F2C00000F0C00000EEC00000ECC00000C4
:10008000EAC00000E8C00000E6C00000E4C00000D4
:10009000E2C00000E0C00000DEC0000042C6000078
:1000A000DAC00000D8C00000D6C00000D4C00000F4
:1000B000D2C00000D0C00000CEC00000CCC0000004
:1000C000CAC00000C8C00000C6C00000C4C0000014
:1000D000C2C00000C0C00000BEC00000BCC0000024
:1000E000BAC000005B015E014D015101550195014F
:1000F000620166016C01700174017A017E01820166
:10010000950188018C019001000022002500280043
:100110002B002E003100340002010000050108010F
:100120000B0105050505070508080808020202027B
:100130000A0A080804040404010101010101010183
:100140000303030303030303040707070C0C0C0C4E
:100150000C0C0C0C02020202060606060606060637
:100160000B0B0B0B0B0B0B0B0102102020080810C4
:100170002040102040800201020108040201010217
:1001800004081020408080402010080402018004F0
:10019000020180402010080402010804020101024B
:1001A0000408102040800102040810204080000054
:1001B0000A0B02090C0D0E080703040100000000E1
:1001C000000000000000000000000000000000002F
:1001D00000000000000000000000121110000000EC
:1001E000000000000000000000000000000000000F
:1001F00000000000C20711241FBECFEFD1E2DEBF16
:10020000CDBF00E00CBF12E0A0E0B2E0E4EEF8E108
:1002100000E00BBF02C007900D92A238B107D9F7DA
:1002200024E0A2E8B2E001C01D92A031B207E1F7DC
:1002300010E0CBEFD0E000E006C021970109802F4D
:10024000FE010E94640CCA3FD10780E00807A9F7AD
:10025000E1D60C94700CD4CE362F90E0FC01E25520
:10026000FE4F4491FC01E859FE4F2491FC01EE5DE4
:10027000FE4F9491992309F46CC0442309F455C0AE
:1002800050E0FA013197E231F10508F04EC08827BD
:10029000EE58FF4F8F4F0C94640C809180008F7745
:1002A00007C0809180008F7D03C080918000877F90
:1002B000809380003AC084B58F7702C084B58F7D6B
:1002C00084BD33C08091B0008F7703C08091B000AF
:1002D0008F7D8093B00029C0809190008F7707C0F8
:1002E000809190008F7D03C080919000877F8093E4
:1002F00090001BC08091A0008F7707C08091A00064
:100300008F7D03C08091A000877F8093A0000DC0E7
:10031000809120018F7707C0809120018F7D03C0DD
:1003200080912001877F80932001E92FF0E0EE0F7C
:10033000FF1FE85FFE4FA591B4919FB7F89431116C
:1003400004C08C912095282302C0EC912E2B2C9375
:100350009FBF08953FB7F894809157039091580339
:10036000A0915903B0915A0326B5A89B05C02F3F11
:1003700019F00196A11DB11D3FBFBA2FA92F982FCB
:100380008827820F911DA11DB11DBC01CD0142E046
:10039000660F771F881F991F4A95D1F708958F928E
:1003A0009F92AF92BF92CF92DF92EF92FF926B013A
:1003B0007C01D0DF4B015C01C114D104E104F104E4
:1003C000E9F0C8DFDC01CB0188199909AA09BB094A
:1003D000883E9340A105B10578F321E0C21AD10807
:1003E000E108F10888EE880E83E0981EA11CB11C7C
:1003F000C114D104E104F10421F7DECFFF90EF90A6
:10040000DF90CF90BF90AF909F908F900895089508
:100410000895CF92DF92EF92FF920F931F93CF93A5
:10042000DF936C017A018B01C0E0D0E0CE15DF05CF
:1004300081F0D8016D918D01D601ED91FC91019073
:10044000F081E02DC6011995892B11F02196EECF90
:100450007E01C701DF91CF911F910F91FF90EF9027
:10046000DF90CF900895FC01538D448D252F30E00F
:10047000842F90E0821B930B541710F0CF960895B1
:1004800001970895FC01918D828D981761F0828DFE
:10049000DF01A80FB11D5D968C91928D9F5F9F73B8
:1004A000928F90E008958FEF9FEF0895FC01918D5A
:1004B000828D981731F0828DE80FF11D858D90E0C7
:1004C00008958FEF9FEF0895FC01918D228D892F64
:1004D00090E0805C9F4F821B91098F73992708954C
:1004E0008BE593E0F1DF21E0892B09F420E0822FF6
:1004F0000895FC01848DDF01A80FB11DA35ABF4FE1
:100500002C91848D90E001968F739927848FA68912
:10051000B7892C93A089B1898C91837080648C9366
:10052000938D848D981306C00288F389E02D808115
:100530008F7D80830895EF92FF920F931F93CF9347
:10054000DF93EC0181E0888F9B8D8C8D981305C023
:10055000E889F989808185FD25C0F62E0B8D10E094
:100560000F5F1F4F0F731127E02E8C8DE8120BC009
:100570000FB607FCFACFE889F989808185FFF5CFAE
:10058000CE01B7DFF2CF8B8DFE01E80FF11DE35AEC
:10059000FF4FF0829FB7F8940B8FEA89FB89808127
:1005A00080620AC09FB7F894EE89FF896083E8896A
:1005B000F98980818370806480839FBF81E090E0AF
:1005C000DF91CF911F910F91FF90EF900895CF93FE
:1005D000DF93EC01888D8823C1F0EA89FB89808153
:1005E00085FD05C0A889B9898C9186FD0EC00FB61E
:1005F00007FCF5CF808185FFF2CFA889B9898C915E
:1006000085FFEDCFCE0175DFE8CFDF91CF91089563
:1006100080E090E0892B19F063DF811125C080E034
:1006200090E0892B41F080E090E0892B21F00E943E
:10063000000081111CC080E090E0892B41F080E037
:1006400090E0892B21F00E940000811113C080E00E
:1006500090E0892BA1F080E090E0892B81F00E944E
:10066000000081110AC008950E940000D8CF0E94A6
:100670000000E1CF0E940000EACF0C940000089532
:1006800085ED8093BC008091BC0084FDFCCF10926E
:10069000310308954091C202262F30E0240F311D0E
:1006A00021323105DCF4209131032430C9F4FC01FE
:1006B00080E090E0861758F43091C2022191DC016D
:1006C000AE55BD4FA30FB11D2C930196F3CF809172
:1006D000C202680F6093C20280E0089581E008952D
:1006E00082E008950895E091350380913403E8177E
:1006F00030F4F0E0EE57FD4F808190E008958FEFE9
:100700009FEF08959091350380913403981750F42A
:10071000E92FF0E0EE57FD4F208130E09F5F90938E
:10072000350302C02FEF3FEFC901089580913403D4
:1007300090E020913503821B91090895CF92DF92BA
:10074000EF92FF920F931F93CF93DF937C01CB0126
:100750008A0120910903222389F0EB016B01C40E69
:10076000D51ECC15DD0561F06991D701ED91FC91A5
:100770000190F081E02DC7011995F3CF642F8ADF36
:10078000C801DF91CF911F910F91FF90EF90DF9003
:10079000CF900895CF93DF931F92CDB7DEB76983D3
:1007A000209109032223D1F020913203203240F01E
:1007B00021E030E0FC013383228380E090E014C02C
:1007C00080913303E82FF0E0E65FFC4F998190833E
:1007D0008F5F809333038093320304C061E0CE01C6
:1007E000019658DF81E090E00F90DF91CF9108955E
:1007F000CF93FC01C48121E020930903C0932A0315
:1008000010923303109232038385682B88EF93E0B4
:10081000C1DF90913203913208F045C080913103DD
:100820008111FCCF82E08093310381E0809330031B
:100830008FEF809308031092070390930603AAE0BA
:10084000B3E0E6EEF2E080E0981721F02D912193DD
:100850008F5FFACF1092E5028091E502CC0FC82B92
:10086000C093E50280912F03813061F410922F0331
:100870008091E5028093BB008091BC0083FDF8CF9E
:1008800085EC01C085EE8093BC00809131038230FD
:10089000E1F3809108038F3F31F0809108038032AB
:1008A00011F08091080310923303109232031092DA
:1008B0000903CF9108950F931F93CF938C01C62FF7
:1008C00097DF6C2F6460C80193DF6C2F6B7FC801CA
:1008D0008FDF83EC90E00197F1F7CF911F910F919B
:1008E00008950F931F93CF93DF938C01C62FD42FBE
:1008F000607F642BE0DF80E1C89FB00111246D2B85
:10090000C801DF91CF911F910F91D5CFCF93DF9386
:10091000CDB7DEB728970FB6F894DEBF0FBECDBFB8
:1009200098E0E0E0F2E0DE01119601900D929A95D8
:10093000E1F790910C04981710F48FEF890FFE01E6
:100940003196E80FF11DE80FF11D6081606840E00D
:1009500084E094E028960FB6F894DEBF0FBECDBFBA
:10096000DF91CF91BECF41E0BCDF81E090E0089500
:10097000089580E090E00895AFD76115710579F092
:10098000FB0101900020E9F73197AF01461B570B9F
:10099000DC01ED91FC910280F381E02D199480E05F
:1009A00090E008952F923F924F925F926F927F92C4
:1009B0008F929F92AF92BF92CF92DF92EF92FF926F
:1009C0000F931F93CF93DF93CDB7DEB7A2970FB6E8
:1009D000F894DEBF0FBECDBF8C014A015B01D22E61
:1009E0009A01AB01C501B40149D7882319F068E326
:1009F00072E024C024013501E89477F82FEF3FEF2F
:100A00004FE75FE7C301B20139D781110CC02FEF67
:100A10003FEF4FE75FE7C301B2017AD518161CF428
:100A20006CE372E00BC02FEF3FEF4FE75FE4C501CF
:100A3000B401BDD618162CF460E472E0C8019DDF45
:100A4000AEC02FEF3FEF4FE75FECC501B40160D5BB
:100A500087FDF2CF20E030E0A901C501B40158D5EF
:100A600087FF0FC0D801ED91FC910190F081E02D3E
:100A70006DE2C80119951C01B7FAB094B7F8B094AB
:100A800002C0212C312CF12C60E070E080E09FE36B
:100A9000DF1439F020E030E040E251E43DD5F3943A
:100AA000F7CFA5019401D0D44B015C01A2D5562EFD
:100AB000672E782EC92E19A2262F372F482F592F8F
:100AC0007E01B1E2EB0EF11CEAA24F2CCA01B90182
:100AD0002AE030E040E050E0D5D6605DF701629357
:100AE0007F01211531054105510581F7BF01C8017D
:100AF00044DF7101E80EF91EDD2009F44FC0652DB9
:100B0000762D872D9C2DA1D59B01AC01C501B4018B
:100B10009AD44B015C01D801ED91FC910190F081D8
:100B2000E02D6EE2C8011995E80EF91E20E030E0D4
:100B300040E251E4C501B4013ED64B015C0159D5F8
:100B40009B0140E050E019A22AA0342C562E632EBF
:100B5000742EC52ECA01B9012AE030E040E050E011
:100B600091D6605DF10162931F01211531054105A8
:100B7000510581F7BF01C80100DFE80EF91E652DA0
:100B8000762D872D9C2D61D59B01AC01C501B4014B
:100B90005AD44B015C01DA94D110C8CFC701A29698
:100BA0000FB6F894DEBF0FBECDBFDF91CF911F917E
:100BB0000F91FF90EF90DF90CF90BF90AF909F90FC
:100BC0008F907F906F905F904F903F902F900895FF
:100BD0001F920F920FB60F9211242F933F938F9372
:100BE0009F93AF93BF938091530390915403A0912F
:100BF0005503B09156033091520323E0230F2D3754
:100C000020F40196A11DB11D05C026E8230F029610
:100C1000A11DB11D2093520380935303909354035D
:100C2000A0935503B09356038091570390915803B6
:100C3000A0915903B0915A030196A11DB11D809353
:100C4000570390935803A0935903B0935A03BF914D
:100C5000AF919F918F913F912F910F900FBE0F9069
:100C60001F9018951F920F920FB60F9211240BB67A
:100C70000F922F933F934F935F936F937F938F9335
:100C80009F93AF93BF93EF93FF938BE593E031DC9A
:100C9000FF91EF91BF91AF919F918F917F916F9154
:100CA0005F914F913F912F910F900BBE0F900FBE10
:100CB0000F901F9018951F920F920FB60F9211244C
:100CC0000BB60F922F938F939F93EF93FF93E09127
:100CD0006B03F0916C038081E0917103F0917203DA
:100CE00082FD12C09081809174038F5F8F73209179
:100CF0007503821751F0E0917403F0E0E55AFC4F60
:100D0000958F8093740301C08081FF91EF919F9133
:100D10008F912F910F900BBE0F900FBE0F901F90D1
:100D200018951F920F920FB60F9211240BB60F92C7
:100D30002F933F934F935F936F937F938F939F93E3
:100D4000AF93BF93EF93FF938091B900887F803674
:100D500009F49CC068F5883209F45BC090F48031D6
:100D600009F454C038F4882309F4F6C0883009F433
:100D70004DC0F5C0883109F44CC0803209F45DC023
:100D8000EEC0803409F468C048F4803309F455C0DB
:100D9000883309F0E4C080930803D8C0803509F493
:100DA0004FC0883509F45DC0883409F0D8C0D6C07A
:100DB000883909F4C7C0A8F4883709F467C038F443
:100DC000883609F463C0803709F460C0C8C0883829
:100DD00009F4B8C0803909F45FC0803809F0BFC099
:100DE0005BC0803B09F486C038F4803A09F466C0E1
:100DF000883A09F47FC0B3C0803C09F4A7C0883C9E
:100E000009F4A4C0883B09F48AC0A9C08091E50216
:100E100010C09091070380910603981770F5E09138
:100E2000070381E08E0F80930703F0E0EA51FD4F46
:100E300080818093BB0085EC86C0809308038EC0C0
:100E4000E091070381E08E0F809307038091BB0040
:100E5000F0E0EA51FD4F80839091070380910603F3
:100E60006EC0E091070381E08E0F809307038091AD
:100E7000BB00F0E0EA51FD4F808380913003811187
:100E80006DC081E080932F0384EA61C083E080938A
:100E900031031092E402CFCF8091E402803208F057
:100EA00051C0E091E40281E08E0F8093E4028091D2
:100EB000BB00F0E0EC53FD4F8083BDCF85EC809309
:100EC000BC00109231038091E402803230F4E09152
:100ED000E402F0E0EC53FD4F10826091E40270E018
:100EE000E0912B03F0912C0384EC92E01995109281
:100EF000E40235C084E0809331031092C302109263
:100F0000C202E0912D03F0912E0319958091C20247
:100F1000811105C081E08093C2021092A202E0918B
:100F2000C30281E08E0F8093C302F0E0EE55FD4FC7
:100F300080818093BB009091C3028091C202981778
:100F400008F479CF85E88093BC0009C085EC8093D4
:100F5000BC001092310303C01092080391DBFF9193
:100F6000EF91BF91AF919F918F917F916F915F9121
:100F70004F913F912F910F900BBE0F900FBE0F908E
:100F80001F901895EBE5F3E01382128288EE93E050
:100F9000A0E0B0E084839583A683B7832CE032E0A1
:100FA0003183208325EC30E03587248724EC30E042
:100FB0003787268720EC30E0318B208B21EC30E026
:100FC000338B228B22EC30E0358B248B26EC30E007
:100FD000378B268B118E128E138E148EE8EFF3E072
:100FE0001382128284839583A683B7838EE192E075
:100FF00091838083E4E0F4E01382128280E392E044
:101000009183808387E2848384E1818784E082877F
:1010100013860895789484B5826084BD84B5816018
:1010200084BD85B5826085BD85B5816085BD8091B3
:101030006E00816080936E0010928100809181002B
:101040008260809381008091810081608093810023
:10105000809180008160809380008091B1008460E5
:101060008093B1008091B00081608093B000809146
:1010700091008260809391008091910081608093C3
:101080009100809190008160809390008091A100F8
:1010900082608093A1008091A10081608093A10073
:1010A0008091A00081608093A000809121018260E6
:1010B00080932101809121018160809321018091A1
:1010C000200181608093200180917A008460809368
:1010D0007A0080917A00826080937A0080917A0011
:1010E000816080937A0080917A00806880937A0092
:1010F0001092C10010923503109234031092330302
:10110000109232031092310381E0809330031092E9
:101110002F0361E084E1A0D861E085E19DD8809152
:10112000B9008E7F8093B9008091B9008D7F809344
:10113000B90088E48093B80085E48093BC0087E020
:1011400092E090932E0380932D0388E092E0909399
:101150002C0380932B031092090480910E0482309B
:1011600018F098E09093090480930C0462E370E017
:1011700080E090E014D960910F0484E094E038DBC3
:1011800068EE73E080E090E00AD960E384E094E0E8
:1011900092DBCBE4D6E4CE010197F1F760E384E083
:1011A00094E089DB2197F1F760E384E094E083DB4E
:1011B00083E592E00197F1F760E284E094E07BDB65
:1011C00060910904606240E084E094E08ADB84E09E
:1011D00080930A0440E06CE084E094E082DB40E02D
:1011E00061E084E094E07DDBCBE3DFE1CE010197B9
:1011F000F1F712E010930B0440E066E084E094E025
:1012000070DB40E062E084E094E06BDB2197F1F773
:10121000E0916B03F0916C031083E0916703F09110
:1012200068031082E0916903F0916A038FEC808378
:1012300010927303E0916F03F091700386E0808356
:10124000E0916D03F0916E03808180618083E09175
:101250006D03F0916E03808188608083E0916D035F
:10126000F0916E03808180688083E0916D03F0913E
:101270006E0380818F7D808388E080930F0460E01F
:1012800084E094E0B5DA80E041DB64E472E084E07D
:1012900094E073DB0BE514E080E4D82EEE24E394B5
:1012A000F12C29E0C22E61E087E00E942C01C801E8
:1012B0000197F1F780917B00877F80937B00D0922C
:1012C0007C0080917A00806480937A0080917A001B
:1012D00086FDFCCF609178008091790070E0EB0191
:1012E000D82B60E087E00E942C0180914C03909104
:1012F0004D03892BC1F4F0924D03E0924C03E6E3D9
:10130000F3E0C193D19383E0EA34F807D1F7CC9EA0
:10131000C001CD9E900D11248C0F9D1F90934B0307
:1013200080934A032AC060914A0370914B038091D5
:10133000360390913703681B790BE6E3F3E0828173
:1013400093818193919383E0E834F807C1F7D093B8
:101350004903C0934803C60FD71FD0934B03C093D4
:101360004A03BE01DD0F880B990B71D120E030E0FC
:1013700040E251E4D1D038D1EB01BE01DD0F880B42
:10138000990B65D120E030E44CE950E414D220E020
:1013900030E040E351E40FD24B015C0120E030E04B
:1013A00048EC53E404D287FD0DC020E030E048EC67
:1013B00053E4C501B40147D02DEC3CEC4CE45EE3B2
:1013C000FAD103C060E070E0CB0160934E037093EC
:1013D0004F03809350039093510381E097DA40913B
:1013E0004E0350914F03609150037091510322E0DE
:1013F00084E094E0D7DA62E572E08BE593E0BDDA51
:1014000040914E0350914F036091500370915103EE
:1014100022E08BE593E0C6DA66E772E08BE593E0C5
:10142000ACDA60E872E08BE593E0A7DA6EE772E091
:101430008BE593E0A2DA68EE73E080E090E00E9432
:10144000CF01E6D830CF5058BB27AA270ED075C1A0
:1014500066D130F06BD120F031F49F3F11F41EF4CF
:101460005BC10EF4E095E7FB51C1E92F77D180F322
:10147000BA17620773078407950718F071F49EF591
:101480008FC10EF4E0950B2EBA2FA02D0B01B901E0
:1014900090010C01CA01A0011124FF27591B99F0EA
:1014A000593F50F4503E68F11A16F040A22F232FF6
:1014B000342F4427585FF3CF469537952795A79546
:1014C000F0405395C9F77EF41F16BA0B620B730BED
:1014D000840BBAF09150A1F0FF0FBB1F661F771F5E
:1014E000881FC2F70EC0BA0F621F731F841F48F413
:1014F000879577956795B795F7959E3F08F0B3CF99
:101500009395880F08F09927EE0F97958795089582
:10151000D9D008F481E008950CD00FC107D140F074
:10152000FED030F021F45F3F19F0F0C0511139C105
:10153000F3C014D198F39923C9F35523B1F3951B44
:10154000550BBB27AA2762177307840738F09F5FE4
:101550005F4F220F331F441FAA1FA9F333D00E2E53
:101560003AF0E0E830D091505040E695001CCAF7C0
:1015700029D0FE2F27D0660F771F881FBB1F261785
:1015800037074807AB07B0E809F0BB0B802DBF0158
:10159000FF2793585F4F2AF09E3F510568F0B6C071
:1015A00000C15F3FECF3983EDCF386957795679535
:1015B000B795F7959F5FC9F7880F911D9695879509
:1015C00097F90895E1E0660F771F881FBB1F621728
:1015D00073078407BA0720F0621B730B840BBA0BE6
:1015E000EE1F88F7E095089504D06894B111D9C032
:1015F0000895BCD088F09F5790F0B92F9927B75124
:10160000A0F0D1F0660F771F881F991F1AF0BA95C6
:10161000C9F712C0B13081F0C3D0B1E00895C0C0A5
:10162000672F782F8827B85F39F0B93FCCF38695BC
:1016300077956795B395D9F73EF490958095709519
:1016400061957F4F8F4F9F4F0895E89409C097FB96
:101650003EF490958095709561957F4F8F4F9F4F89
:101660009923A9F0F92F96E9BB279395F6958795CD
:1016700077956795B795F111F8CFFAF4BB0F11F490
:1016800060FF1BC06F5F7F4F8F4F9F4F16C0882337
:1016900011F096E911C0772321F09EE8872F762F6D
:1016A00005C0662371F096E8862F70E060E02AF0AE
:1016B0009A95660F771F881FDAF7880F969587959A
:1016C00097F90895990F0008550FAA0BE0E8FEEF6F
:1016D00016161706E807F907C0F012161306E407F6
:1016E000F50798F0621B730B840B950B39F40A26EF
:1016F00061F0232B242B252B21F408950A2609F4CD
:10170000A140A6958FEF811D811D089597F99F67D0
:1017100080E870E060E008959FEF80EC0895002479
:101720000A941616170618060906089500240A9446
:1017300012161306140605060895092E0394000CCC
:1017400011F4882352F0BB0F40F4BF2B11F460FF5B
:1017500004C06F5F7F4F8F4F9F4F089557FD905884
:10176000440F551F59F05F3F71F04795880F97FB65
:10177000991F61F09F3F79F087950895121613061F
:101780001406551FF2CF4695F1DF08C0161617064E
:101790001806991FF1CF8695710561050894089583
:1017A000E894BB2766277727CB0197F908958ADF4E
:1017B00008F48FEF08950BD0C0CFB1DF28F0B6DF6B
:1017C00018F0952309F0A2CFA7CF1124EACFC6DFE6
:1017D000A0F3959FD1F3950F50E0551F629FF00144
:1017E000729FBB27F00DB11D639FAA27F00DB11D9D
:1017F000AA1F649F6627B00DA11D661F829F222726
:10180000B00DA11D621F739FB00DA11D621F839FAC
:10181000A00D611D221F749F3327A00D611D231F82
:10182000849F600D211D822F762F6A2F11249F57D0
:1018300050408AF0E1F088234AF0EE0FFF1FBB1FF3
:10184000661F771F881F91505040A9F79E3F510592
:1018500070F05CCFA6CF5F3FECF3983EDCF386954B
:1018600077956795B795F795E7959F5FC1F7FE2B3D
:10187000880F911D9695879597F9089523DF880B1A
:10188000990B0895A1E21A2EAA1BBB1BFD010DC0E6
:10189000AA1FBB1FEE1FFF1FA217B307E407F50720
:1018A00020F0A21BB30BE40BF50B661F771F881FFC
:1018B000991F1A9469F760957095809590959B0192
:1018C000AC01BD01CF010895EE0FFF1F881F8BBF34
:1018D0000790F691E02D199481E090E0F89400C013
:0418E000F894FFCFAA
:1018E4000000400014005400000000009B020902A4
:1018F4003302E70264024202560200000000CA03F7
:101904009E03B9047203960382037303000000006C
:10191400B3040902B904B8046E616E00696E66000E
:101924006F7666004475737420436F756E746572C8
:101934003A005468652063757272656E742064752C
:10194400737420636F6E63656E74726174696F6E15
:101954002069733A20002075672F6D330A000D0A41
:02196400000081
:00000001FF
