:10000000D1C100000C947D0C0C94520C0C94270C64
:100010000C94FC0B0C94D10B0C94A60B0C947B0B46
:100020000C94500BF0C10000EEC10000ECC10000C8
:10003000EAC10000E8C10000E6C10000E4C1000020
:10004000E2C10000E0C10000DEC10000DCC1000030
:10005000DAC10000D8C10000D6C100000C94281AF3
:10006000D2C100000C94760D0C944D0DCCC1000053
:10007000CAC10000C8C10000C6C10000C4C1000060
:10008000C2C10000C0C10000BEC10000BCC1000070
:10009000BAC10000B8C10000B6C100000C94AC0D9C
:1000A000B2C10000B0C10000AEC10000ACC1000090
:1000B000AAC10000A8C10000A6C10000A4C10000A0
:1000C000A2C10000A0C100009EC100009CC10000B0
:1000D0009AC1000098C1000096C1000094C10000C0
:1000E00092C100007D1180116F1173117911B71148
:1000F000841188118E11921196119C11A011A411D6
:10010000B711AA11AE11B211B812BD12C212CC129F
:10011000D6124F13E012E812F012FA1204130E1363
:100120001D1327134F1331133B1345130800000011
:10013000BE922449123EABAAAA2ABECDCCCC4C3EDC
:1001400000000080BEABAAAAAA3E00000000BF00CB
:100150000000803F0000000000084178D3BB4387C7
:10016000D1133D190E3CC3BD4282AD2B3E68EC82DB
:1001700076BED98FE1A93E4C80EFFFBE01C4FF7F60
:100180003F000000000000407A10F35A00A0724EB9
:1001900018090010A5D4E80000E87648170000E42C
:1001A0000B54020000CA9A3B000000E1F505000074
:1001B00080969800000040420F000000A0860100D9
:1001C0000000102700000000E803000000006400A9
:1001D000000000000A000000000001000000000014
:1001E0002C76D888DC674F0823DFC1DFAE59E1B138
:1001F000B796E5E3E453C63AE651997696E8E6C247
:100200008426EB898C9B62ED407C6FFCEFBC9C9F4D
:1002100040F2BAA56FA5F490055A2AF75C936B6C6F
:10022000F9676DC11BFCE0E40D47FEF520E6B50063
:10023000D0ED902E0300943577050080841E0800D1
:1002400000204E0A000000C80C333333330F986E81
:1002500012831141EF8D2114893BE65516CFFEE63E
:10026000DB18D1844B381BF77C1D901DA4BBE42404
:10027000203284725E228100C9F124ECA1E53D2781
:1002800000002100240027002A002D003000330048
:1002900001010000040107010A01000022002500FD
:1002A00028002B002E00310034000201000005015F
:1002B00008010B01000020002300260029002C006B
:1002C0002F003200000100000301060109010505AD
:1002D0000505070508080808020202020A0A0808BC
:1002E00004040404010101010101010103030303EA
:1002F00003030303040707070C0C0C0C0C0C0C0C79
:100300000202020206060606060606060B0B0B0B89
:100310000B0B0B0B010210202008081020401020AE
:1003200040800201020108040201010204081020B9
:1003300040808040201008040201800402018040B7
:100340002010080402010804020101020408102020
:100350004080010204081020408000000A0B0209BE
:100360000C0D0E080703040100000000000000004F
:10037000000000000000000000000000000000007D
:10038000000000000000121110000000000000003A
:10039000000000000000000000000000000000005D
:1003A0002020142011241FBECFEFD1E2DEBFCDBF2D
:1003B00000E00CBF13E0A0E0B2E0EAE6F2E500E006
:1003C0000BBF02C007900D92AA38B107D9F725E0FC
:1003D000AAE8B3E001C01D92AA3EB207E1F711E01E
:1003E000C1EDD1E000E006C021970109802FFE0198
:1003F0000E94F726C03DD10780E00807A9F70E94B8
:10040000721A0C942429FCCDCF93DF931F92CDB7A1
:10041000DEB76983DC01ED91FC910280F381E02D70
:1004200041E050E0BE016F5F7F4F19950F90DF9163
:10043000CF910895FC01818D928D0895CF93DF9324
:100440001F92CDB7DEB76983DC01ED91FC9102808C
:10045000F381E02D41E050E0BE016F5F7F4F1995C1
:100460000F90DF91CF910895FC019485FB01848565
:10047000981303C081E0983008F080E00895CF938E
:10048000DF931F92CDB7DEB76983DC01ED91FC915C
:100490000280F381E02D41E050E0BE016F5F7F4FAD
:1004A00019950F90DF91CF910895FC0176876587AC
:1004B0000895DC01ED91FC91068CF78DE02D1995E6
:1004C00091E089270895862F089581E08627089571
:1004D00021E0FC018485883008F020E0822F089517
:1004E000FC01848595850895FC018489958908958A
:1004F00024E632E0FC0131832083FB0140895189ED
:1005000062897389FC0142835383648375830895F0
:10051000DC01ED91FC91048CF58DE02D199480E0C7
:10052000089580919D0390919E03019690939E0360
:1005300080939D03089580919B0390919C03019665
:1005400090939C0380939B030895809199039091CD
:100550009A03019690939A0380939903089580914A
:100560009703909198030196909398038093970333
:100570000895809195039091960301969093960328
:10058000809395030895089580E090E00895CF92B8
:10059000DF92EF92FF920F931F93CF93DF9300D0E0
:1005A00000D0CDB7DEB78C016B017A01FC01808DE4
:1005B000883010F40E94C01984E692E09A838983FF
:1005C000F60182819381A481B5818B839C83AD8365
:1005D000BE83B701CE0101960E94FD11F801808F04
:1005E000883030F4F586E486128E118E81E001C0E9
:1005F00080E026960FB6F894DEBF0FBECDBFDF9128
:10060000CF911F910F91FF90EF90DF90CF900895C1
:10061000CF93DF93FC01808D883028F4EF010E9496
:10062000C01988E0888FDF91CF910895FC01808DFB
:10063000883040F4218D328D232B21F00E947418D4
:1006400090E008958FEF9FEF0895CF93DF93FC0123
:100650002485283018F08FEF9FEF0EC0EC01019039
:10066000F081E02D0084F185E02D1995892B99F317
:100670008C850E94741890E0DF91CF910895CF93FC
:10068000DF93FC01218D328D2115310519F48FEF97
:100690009FEF11C0EC014217530708F0A901888DA4
:1006A0000E94D4181816190694F7298D3A8D281B24
:1006B000390B3A8F298FDF91CF9108950F931F93B4
:1006C000CF93DF931F92CDB7DEB7FC01218D328D22
:1006D000232B61F08C0141E050E0BE016F5F7F4F42
:1006E000808D0E94D418181619061CF08FEF9FEF0A
:1006F00008C0F801818D928D0197928F818F898139
:1007000090E00F90DF91CF911F910F910895CF93BB
:10071000DF931F92CDB7DEB741E050E0BE016F5FBF
:100720007F4FFC0184850E94D418181619061CF40A
:10073000898190E002C08FEF9FEF0F90DF91CF9102
:100740000895FC018485883010F40C94D41880E05E
:1007500090E00895FC018485883010F40C949F1873
:1007600080E090E008950F931F93CF93DF93CDB770
:10077000DEB728970FB6F894DEBF0FBECDBF8C0151
:10078000D80159964D915C915A974115510551F0F8
:10079000ED91FC91048CF58DE02D60E070E0C801D6
:1007A0001995EECFF801808D0E949F18892B51F189
:1007B00048E050E0BE016F5F7F4FD80158968C91A2
:1007C0000E94D41818161906FCF4D801509684E03B
:1007D000FE01319601900D928A95E1F78D8190E0AE
:1007E000982F88272E81820F911DF801958B848B7D
:1007F0008F8190E0982F88272885820F911D928FF6
:10080000818F02C080E090E028960FB6F894DEBF9A
:100810000FBECDBFDF91CF911F910F910895AF9281
:10082000BF92CF92DF92EF92FF920F931F93CF93DD
:10083000DF93CDB7DEB7AF970FB6F894DEBF0FBE2C
:10084000CDBF8C015B016A01CE0101960E94DD11D2
:1008500084E6E82E82E0F82EFBA6EAA61CA61DA6DA
:100860001EA61FA68091F8049091F904A091FA04A5
:10087000B091FB048EA39FA3A8A7B9A78B839C83E9
:10088000AD83BE8318861F82AE01465D5F4FB50102
:10089000CE0101960E94BB1381309105B1F4D801BD
:1008A000ED91FC910488F589E02DFDA2ECA28CA5C8
:1008B0009DA5AEA5BFA58EA39FA3A8A7B9A7A60176
:1008C000BE016C5D7F4FC8011995AF960FB6F894C5
:1008D000DEBF0FBECDBFDF91CF911F910F91FF9073
:1008E000EF90DF90CF90BF90AF9008950F931F933C
:1008F000CF93DF93EC018B01888D883010F40E9438
:10090000C019B80182E00E94261A888F883030F41E
:100910001D870C871A8E198E81E001C080E0DF915F
:10092000CF911F910F9108950F931F93CF93DF9352
:10093000FC018485883068F4C52FD42F8F010E9474
:10094000FF17009749F421E030E0F8013383228358
:1009500005C080E090E002C08D2F9C2FDF91CF91E9
:100960001F910F910895EF92FF920F931F93CF93D2
:100970007C0105ED15E0C0E0F801219131918F0176
:10098000F701848195812817390729F0CF5FC83096
:1009900099F780E006C08C2F0E94DD198431B1F7F1
:1009A00081E0CF911F910F91FF90EF900895CF9329
:1009B000DF93EC018C858830C8F40E94DD19843106
:1009C00081F0882371F0883161F08C3161F4E88125
:1009D000F9810084F185E02DCE01199521E0892B64
:1009E00019F420E001C021E0822F01C080E0DF91F6
:1009F000CF91089580E090E00895CF92DF92EF923A
:100A0000FF920F931F93CF93DF93CDB7DEB7AF97CE
:100A10000FB6F894DEBF0FBECDBF8C016B017A011B
:100A2000CE0101960E94DD1184E692E09BA78AA781
:100A30001CA61DA61EA61FA6D8011C968C91883048
:100A400060F40E94DD19882321F0F80184850E945A
:100A5000A31988E0D8011C968C938091F80490919A
:100A6000F904A091FA04B091FB048EA39FA3A8A758
:100A7000B9A78B839C83AD83BE8318861F82AE018A
:100A8000465D5F4FB601CE0101960E94BB130097F1
:100A9000C1F0D801ED91FC910684F785E02D84E644
:100AA00092E09DA38CA38CA59DA5AEA5BFA58EA30A
:100AB0009FA3A8A7B9A7A701BE016C5D7F4FC8017E
:100AC0001995AF960FB6F894DEBF0FBECDBFDF917C
:100AD000CF911F910F91FF90EF90DF90CF900895ED
:100AE000CF92DF92EF92FF92CF93DF93EC018C8550
:100AF000883038F50E94A3190E94AF136B017C0166
:100B00008C850E94DD198823D1F061E070E080E0DF
:100B100090E00E9477130E94AF13AB01BC014C1907
:100B20005D096E097F098D859E85A0E0B0E04817BC
:100B300059076A077B0720F38C850E94C01988E05B
:100B40008C87DF91CF91FF90EF90DF90CF90089549
:100B5000CF93DF93EC018C85883060F40E94DD191F
:100B6000873111F08C3131F48C850E94D3178115B7
:100B7000984088F3DF91CF910895FC0184858830F7
:100B800010F40C94D31780E090E00895FB01BA01B3
:100B900090E0982F8827A9018E0F9F1F0C94B516FF
:100BA000CF93DF931F92CDB7DEB79B01498390E0CF
:100BB000982F882741E050E0BE016F5F7F4F820F82
:100BC000931F0E94B5160F90DF91CF910895CF9398
:100BD000DF931F92CDB7DEB79B0190E0982F882757
:100BE00041E050E0BE016F5F7F4F820F931F0E9474
:100BF000601689810F90DF91CF91089563E070E0D6
:100C0000E6CFFB01BA0190E0982F8827A9018E0F4B
:100C10009F1F0C94601608958CBD9DBD08957F9212
:100C20008F929F92AF92BF92CF92DF92EF92FF92FC
:100C30000F931F93CF93DF931F921F92CDB7DEB711
:100C40007C014B01742EC52EFC01A688B788D08C80
:100C5000CE0101960E945C1189819A81DDDF8D2D84
:100C60000E949617072D1C2D8017910708F48C0100
:100C70009801A401B5018D2D0E942C17F7018689DA
:100C80009789800F911F978B868BC8010F900F90CB
:100C9000DF91CF911F910F91FF90EF90DF90CF9058
:100CA000BF90AF909F908F907F9008951F93CF93A8
:100CB000DF931F921F92CDB7DEB7FC01108DCE01DE
:100CC00001960E945C1189819A81A6DF60E270E042
:100CD000812F0E948A0F62E070E0812F78DF84FD0F
:100CE00015C062E070E0812F72DF83FF07C048E12A
:100CF00062E070E0812F54DF80E00EC0CE010196EB
:100D00000E945C1189819A8187DFE5CF40E162E032
:100D100070E0812F45DF81E090E00F900F90DF9130
:100D2000CF911F910895DF92EF92FF920F931F933F
:100D3000CF93DF931F921F92CDB7DEB7FB01DC018B
:100D400057961C921E9256972281211109C0238129
:100D5000211106C02481211103C025812223E9F03D
:100D600041155105D1F07A018F01FC01D08CCE01E3
:100D700001960E945C1189819A814EDFA8014E5F25
:100D80005F4F24E030E06CE070E08D2DFFDEB701B6
:100D90008D2D0E94FA1981E001C080E090E00F9053
:100DA0000F90DF91CF911F910F91FF90EF90DF9007
:100DB0000895EF92FF921F93CF93DF931F921F929C
:100DC000CDB7DEB77C01FC016481758181E20E94B0
:100DD000261A182F8830F8F4CE0101960E945C1173
:100DE00089819A8119DF812F09DF833189F462E0DB
:100DF00070E0812F0E948A0FF70184819581E12F95
:100E0000F0E0EE0FFF1FEB52FA4F9183808303C097
:100E1000812F0E94A3190F900F90DF91CF911F9106
:100E2000FF90EF9008950F931F93CF93DF931F923E
:100E30001F92CDB7DEB7FC0124852830C0F48C01A9
:100E4000CE0101960E945C1189819A81E5DE22E043
:100E500030E0AE014F5F5F4F60E170E0F8018485E4
:100E6000D0DE89819A8198278927982702C080E05F
:100E700090E00F900F90DF91CF911F910F91089507
:100E8000EF92FF920F931F93CF93DF9300D01F92A7
:100E9000CDB7DEB78C017B01FB018485883050F033
:100EA00084E692E0F8019183808312821382148297
:100EB00015821EC0CE0101960E945C1189819A8123
:100EC000ABDE24E030E0AE014F5F5F4F6CE070E0DE
:100ED000F701848596DE84E692E0F80191838083B1
:100EE00089819A81AB81BC8182839383A483B583FA
:100EF000C8010F900F900F900F90DF91CF911F912D
:100F00000F91FF90EF9008950F931F93CF93DF936E
:100F10001F921F92CDB7DEB7FC0124852830C0F4A4
:100F20008C01CE0101960E945C1189819A8174DE48
:100F300022E030E0AE014F5F5F4F64E070E0F80107
:100F400084855FDE89819A8198278927982702C046
:100F500080E090E00F900F90DF91CF911F910F9163
:100F60000895AF92BF92CF92DF92EF92FF920F93CC
:100F70001F93CF93DF931F921F92CDB7DEB78C01E3
:100F80006B015A01FC018485883058F40E94DD19F8
:100F9000882321F0F80184850E94A31988E0F801D4
:100FA0008487F60182819381A481B5810097A10590
:100FB000B10509F458C08F3F9F4FAF4FBF4F09F4A1
:100FC00052C060E070E081E20E94261AF82EF8011B
:100FD0008487F7E0F81708F446C0CE0101960E9416
:100FE0005C1189819A8118DEA6014E5F5F4F24E073
:100FF00030E06CE070E08F2DC9DDB5018F2D0E94CF
:10100000FA1964E070E08F2D85D70E94AF136B0151
:101010007C01F80184850E94DD19873139F18C311A
:1010200029F1882301F10E94AF13AB01BC014C19D7
:101030005D096E097F09F80185859685A0E0B0E01D
:1010400084179507A607B70738F061E070E080E0E5
:1010500090E00E947713DDCFF80184850E94C019CB
:1010600088E0F801848780E090E002C081E090E0B1
:101070000F900F90DF91CF911F910F91FF90EF9004
:10108000DF90CF90BF90AF9008950895CF92DF92F8
:10109000EF92FF920F931F93CF93DF936C017A012E
:1010A0008B01C0E0D0E0CE15DF0581F0D8016D9155
:1010B0008D01D601ED91FC910190F081E02DC601EA
:1010C0001995892B11F02196EECF7E01C701DF9192
:1010D000CF911F910F91FF90EF90DF90CF900895E7
:1010E000FC01538D448D252F30E0842F90E0821B2E
:1010F000930B541710F0CF96089501970895FC01B3
:10110000918D828D981761F0828DDF01A80FB11D3E
:101110005D968C91928D9F5F9F73928F90E0089562
:101120008FEF9FEF0895FC01918D828D981731F01C
:10113000828DE80FF11D858D90E008958FEF9FEF70
:101140000895FC01918D228D892F90E0805C9F4F46
:10115000821B91098F73992708958DE494E0F1DF44
:1011600021E0892B09F420E0822F0895FC01848D71
:10117000DF01A80FB11DA35ABF4F2C91848D90E0C1
:1011800001968F739927848FA689B7892C93A0899C
:10119000B1898C91837080648C93938D848D981326
:1011A00006C00288F389E02D80818F7D80830895B9
:1011B000EF92FF920F931F93CF93DF93EC0181E0A7
:1011C000888F9B8D8C8D981305C0E889F989808163
:1011D00085FD25C0F62E0B8D10E00F5F1F4F0F739E
:1011E0001127E02E8C8DE8120BC00FB607FCFACF4A
:1011F000E889F989808185FFF5CFCE01B7DFF2CF8D
:101200008B8DFE01E80FF11DE35AFF4FF0829FB76F
:10121000F8940B8FEA89FB89808180620AC09FB7AE
:10122000F894EE89FF896083E889F9898081837069
:10123000806480839FBF81E090E0DF91CF911F9118
:101240000F91FF90EF900895CF93DF93EC01888D7D
:101250008823C1F0EA89FB89808185FD05C0A889C2
:10126000B9898C9186FD0EC00FB607FCF5CF808141
:1012700085FFF2CFA889B9898C9185FFEDCFCE018A
:1012800075DFE8CFDF91CF91089580E090E0892B62
:1012900019F063DF811125C080E090E0892B41F0D7
:1012A00080E090E0892B21F00E94000081111CC099
:1012B00080E090E0892B41F080E090E0892B21F0E4
:1012C0000E940000811113C080E090E0892BA1F002
:1012D00080E090E0892B81F00E94000081110AC01B
:1012E00008950E940000D8CF0E940000E1CF0E9424
:1012F0000000EACF0C940000089585ED8093BC00B7
:101300008091BC0084FDFCCF109290030895409121
:101310000504262F30E0240F311D21323105DCF485
:10132000209190032430C9F4FC0180E090E08617FE
:1013300058F4309105042191DC01AB51BC4FA30F4F
:10134000B11D2C930196F3CF80910504680F609333
:10135000050480E0089581E0089582E008950895ED
:1013600008950895E091940380919303E81730F471
:10137000F0E0EB53FC4F808190E008958FEF9FEFFA
:1013800008959091940380919303981750F4E92F56
:10139000F0E0EB53FC4F208130E09F5F909394038B
:1013A00002C02FEF3FEFC90108958091930390E0B1
:1013B00020919403821B91090895CF92DF92EF92BE
:1013C000FF920F931F93CF93DF937C01CB018A0190
:1013D0002091C403222389F0EB016B01C40ED51EBA
:1013E000CC15DD0561F06991D701ED91FC9101907B
:1013F000F081E02DC7011995F3CF642F88DFC80174
:10140000DF91CF911F910F91FF90EF90DF90CF90E0
:101410000895CF93DF931F92CDB7DEB769832091F4
:10142000C4032223D1F020919103203240F021E027
:1014300030E0FC013383228380E090E014C080918F
:101440009203E82FF0E0EC55FC4F998190838F5F79
:10145000809392038093910304C061E0CE010196D2
:1014600056DF81E090E00F90DF91CF9108950E94C8
:1014700000290F931F93CF93DF93EC01888199810B
:10148000009729F02A813B812617370788F48B01C2
:101490006F5F7F4F0E942028009761F099838883B7
:1014A0001B830A832C813D81232B11F4FC011082C4
:1014B00081E001C080E0DF91CF911F910F910895ED
:1014C000CF93DF93EC0188819981009711F00E94FE
:1014D0009727198218821D821C821B821A82DF9133
:1014E000CF910895EF92FF920F931F93CF93DF93C5
:1014F000EC017B018A01BA01BCDF811103C0CE017E
:10150000DFDF07C01D830C83B701888199810E94AA
:101510001D29CE01DF91CF911F910F91FF90EF9088
:101520000895FC0124813581232B31F421E06115DC
:101530007105A1F0FB0108C0FC018081918161155A
:10154000710531F421E0FC018081882339F005C068
:101550000E94142921E0892B09F020E0822F0895B0
:10156000EF92FF920F931F93CF93DF936115710555
:1015700011F480E01BC041155105B9F07B01EC016D
:101580008C819D818A01080F191FB801CE0171DF7E
:10159000882379F3288139818C819D81B701820F5D
:1015A000931F0E941D291D830C8381E0DF91CF9141
:1015B0001F910F91FF90EF900895CF93DF93EC016F
:1015C0006115710559F0FB0101900020E9F7319791
:1015D000AF01461B570BC4DF811102C0CE0170DF83
:1015E000CE01DF91CF910895CF93DF93EC01FB0102
:1015F0004481558160817181B3DF811102C0CE01C8
:101600005FDFCE01DF91CF910895CF93DF93EC019F
:101610006115710551F0FB0101900020E9F7319748
:10162000AF01461B570B5EDF01C04ADFCE01DF91E1
:10163000CF910895CF93DF93EC01FB0186179707B5
:1016400051F0608171816115710521F044815581EE
:1016500049DF01C035DFCE01DF91CF910895FC0154
:10166000808191810C949727FC0111821082138252
:10167000128215821482DECFFC0111821082138245
:101680001282158214826115710549F0FB010190E7
:101690000020E9F73197AF01461B570B23CF089580
:1016A0001F920F920FB60F9211240BB60F922F9329
:1016B0003F934F935F936F937F938F939F93AF93DA
:1016C000BF93EF93FF93E0910E02F0910F021995F3
:1016D000FF91EF91BF91AF919F918F917F916F910A
:1016E0005F914F913F912F910F900BBE0F900FBEC6
:1016F0000F901F9018951F920F920FB60F92112402
:101700000BB60F922F933F934F935F936F937F93FB
:101710008F939F93AF93BF93EF93FF93E0910C024E
:10172000F0910D021995FF91EF91BF91AF919F91AB
:101730008F917F916F915F914F913F912F910F907A
:101740000BBE0F900FBE0F901F9018951F920F9217
:101750000FB60F9211240BB60F922F933F934F9316
:101760005F936F937F938F939F93AF93BF93EF9309
:10177000FF93E0910202F09103021995FF91EF911E
:10178000BF91AF919F918F917F916F915F914F9199
:101790003F912F910F900BBE0F900FBE0F901F9097
:1017A00018951F920F920FB60F9211240BB60F923D
:1017B0002F933F934F935F936F937F938F939F9359
:1017C000AF93BF93EF93FF93E0910002F09101027A
:1017D0001995FF91EF91BF91AF919F918F917F915B
:1017E0006F915F914F913F912F910F900BBE0F9092
:1017F0000FBE0F901F9018951F920F920FB60F9269
:1018000011240BB60F922F933F934F935F936F93D7
:101810007F938F939F93AF93BF93EF93FF93E09149
:101820000A02F0910B021995FF91EF91BF91AF91D0
:101830009F918F917F916F915F914F913F912F91E8
:101840000F900BBE0F900FBE0F901F9018951F9218
:101850000F920FB60F9211240BB60F922F933F9356
:101860004F935F936F937F938F939F93AF93BF93A8
:10187000EF93FF93E0910802F09109021995FF910F
:10188000EF91BF91AF919F918F917F916F915F91F8
:101890004F913F912F910F900BBE0F900FBE0F9065
:1018A0001F9018951F920F920FB60F9211240BB62E
:1018B0000F922F933F934F935F936F937F938F93E9
:1018C0009F93AF93BF93EF93FF93E0910602F09144
:1018D00007021995FF91EF91BF91AF919F918F9161
:1018E0007F916F915F914F913F912F910F900BBE20
:1018F0000F900FBE0F901F9018951F920F920FB66A
:101900000F9211240BB60F922F933F934F935F9337
:101910006F937F938F939F93AF93BF93EF93FF93B7
:10192000E0910402F09105021995FF91EF91BF91AA
:10193000AF919F918F917F916F915F914F913F9167
:101940002F910F900BBE0F900FBE0F901F90189508
:101950006115710579F0FB0101900020E9F73197DD
:10196000AF01461B570BDC01ED91FC910280F38126
:10197000E02D199480E090E008958F929F92AF92AD
:10198000BF92EF92FF920F931F93CF93DF93CDB748
:10199000DEB7A1970FB6F894DEBF0FBECDBF7C01B6
:1019A000FA01CB0119A2223008F42AE08E010F5D62
:1019B0001F4F822E912CA12CB12CBF01A5019401A7
:1019C0000E949025F901CA01015011096A3014F4EE
:1019D000605D01C0695CD8016C93232B242B252BFF
:1019E00061F7B801C701B4DFA1960FB6F894DEBF66
:1019F0000FBECDBFDF91CF911F910F91FF90EF9060
:101A0000BF90AF909F908F9008958F929F92AF92CA
:101A1000BF92CF92DF92EF92FF920F931F93CF93DB
:101A2000DF937C01EB016C0182E0C80ED11C470101
:101A3000E5E08E0E911C00E010E0F60141916F018F
:101A400050E060E070E02AE0CE0197DF5C01E881C1
:101A5000F9810190F081E02D6EE2CE0119958A0D99
:101A60009B1D080F191F8C149D0439F7F701458140
:101A700050E060E070E02AE0CE017FDF800F911F30
:101A8000DF91CF911F910F91FF90EF90DF90CF905A
:101A9000BF90AF909F908F9008951F920F920FB6B6
:101AA0000F9211240BB60F922F933F934F935F9396
:101AB0006F937F938F939F93AF93BF93EF93FF9316
:101AC0008DE494E053DBFF91EF91BF91AF919F9133
:101AD0008F917F916F915F914F913F912F910F90D7
:101AE0000BBE0F900FBE0F901F9018951F920F9274
:101AF0000FB60F9211240BB60F922F938F939F93D3
:101B0000EF93FF93E0915D04F0915E048081E0919A
:101B10006304F091640482FD12C090818091660498
:101B20008F5F8F7320916704821751F0E0916604F4
:101B3000F0E0E35BFB4F958F8093660401C08081EA
:101B4000FF91EF919F918F912F910F900BBE0F906E
:101B50000FBE0F901F9018951F920F920FB60F9205
:101B600011240BB60F922F933F934F935F936F9374
:101B70007F938F939F93AF93BF93EF93FF93809146
:101B8000B900887F803609F49CC068F5883209F472
:101B90005BC090F4803109F454C038F4882309F410
:101BA000F6C0883009F44DC0F5C0883109F44CC046
:101BB000803209F45DC0EEC0803409F468C048F496
:101BC000803309F455C0883309F0E4C080932804B9
:101BD000D8C0803509F44FC0883509F45DC0883419
:101BE00009F0D8C0D6C0883909F4C7C0A8F488372E
:101BF00009F467C038F4883609F463C0803709F403
:101C000060C0C8C0883809F4B8C0803909F45FC022
:101C1000803809F0BFC05BC0803B09F486C038F44F
:101C2000803A09F466C0883A09F47FC0B3C0803CAA
:101C300009F4A7C0883C09F4A4C0883B09F48AC011
:101C4000A9C080914B0410C090914A04809149042E
:101C5000981770F5E0914A0481E08E0F80934A0452
:101C6000F0E0E75DFB4F80818093BB0085EC86C090
:101C7000809328048EC0E0914A0481E08E0F809307
:101C80004A048091BB00F0E0E75DFB4F80839091B8
:101C90004A04809149046EC0E0914A0481E08E0FAD
:101CA00080934A048091BB00F0E0E75DFB4F8083A6
:101CB00080918F0381116DC081E080938E0384EA4F
:101CC00061C083E08093900310922704CFCF80916E
:101CD0002704803208F051C0E091270481E08E0F84
:101CE000809327048091BB00F0E0E95FFB4F808385
:101CF000BDCF85EC8093BC001092900380912704A7
:101D0000803230F4E0912704F0E0E95FFB4F10826D
:101D10006091270470E0E0918A03F0918B0387E0E3
:101D200094E019951092270435C084E080939003C5
:101D30001092060410920504E0918C03F0918D033B
:101D4000199580910504811105C081E080930504F7
:101D50001092E503E091060481E08E0F8093060463
:101D6000F0E0EB51FC4F80818093BB009091060422
:101D700080910504981708F479CF85E88093BC001A
:101D800009C085EC8093BC001092900303C01092B0
:101D90002804B3DAFF91EF91BF91AF919F918F919A
:101DA0007F916F915F914F913F912F910F900BBE5B
:101DB0000F900FBE0F901F901895CF93FC01C48118
:101DC00021E02093C403C093A303109292031092C6
:101DD00091038385682B8AEE94E01BDB909191033D
:101DE000913208F045C0809190038111FCCF82E0D0
:101DF0008093900381E080938F038FEF809328047A
:101E000010924A0490934904A4EAB3E0E9E2F4E0B2
:101E100080E0981721F02D9121938F5FFACF1092D7
:101E20004B0480914B04CC0FC82BC0934B04809182
:101E30008E03813061F410928E0380914B04809365
:101E4000BB008091BC0083FDF8CF85EC01C085EE1E
:101E50008093BC00809190038230E1F3809128044C
:101E60008F3F31F080912804803211F08091280456
:101E700010929203109291031092C403CF9108958F
:101E80000F931F93CF938C01C62F97DF6C2F646045
:101E9000C80193DF6C2F6B7FC8018FDF83EC90E06C
:101EA0000197F1F7CF911F910F9108950F931F9311
:101EB000CF93DF938C01C62FD42F607F642BE0DF9C
:101EC00080E1C89FB00111246D2BC801DF91CF9133
:101ED0001F910F91D5CF41E0E9DF81E090E00895B7
:101EE000FC0120812EBD9B012150310941F051811F
:101EF0000DB407FEFDCF4EB55EBD4193F5CF6150E9
:101F00007109FC01E60FF71F0DB407FEFDCF8EB57A
:101F100080830895CF93C82F462F61E070E00E9420
:101F2000D00561E070E08C2F0E94E7058111F9CFA8
:101F3000CF9108950F931F9312D46093550470931B
:101F4000560480935704909358048DE494E0D7D8B6
:101F500097FF1EC004D4009155041091560420919F
:101F6000570430915804DC01CB01801B910BA20B6C
:101F7000B30B0091510410915204209153043091FD
:101F8000540480179107A207B307F8F28FEF9FEF71
:101F90001F910F910895CF93DF93CDB7DEB72897A8
:101FA0000FB6F894DEBF0FBECDBF98E0E6E1F2E0D9
:101FB000DE01119601900D929A95E1F7909110052E
:101FC000961710F46FEF690FFE013196E60FF11DC1
:101FD000E60FF11D6081680F606840E088E095E0E1
:101FE00028960FB6F894DEBF0FBECDBFDF91CF911C
:101FF0005DCFCF93DF93EC01688180E228D26981C5
:1020000081E225D26A8182E222D26B8183E21FD2F1
:102010006C8184E21CD26D8185E219D26E8186E2E8
:1020200016D26F8187E213D26A857B8588E079D2E8
:102030006C857D8589E0DF91CF9173C20F931F93EB
:10204000CF93DF931F921F92CDB7DEB78C0164E868
:1020500073E012DB6FDF97FD0AC089831A8241E0CB
:1020600050E0BE016F5F7F4FC8017ADAF3CFC8013D
:102070000F900F90DF91CF911F910F9108950F93C3
:102080001F93CF93DF9300D000D0CDB7DEB78C0184
:1020900065E873E0CE010196EFDAB801CE01019652
:1020A000A3DA67E873E089DAFC0144815581608135
:1020B00071818DE494E00E94460862E873E08DE44B
:1020C00094E046DCCE010196CADA26960FB6F89463
:1020D000DEBF0FBECDBFDF91CF911F910F9108954D
:1020E000EF92FF920F931F93CF93DF93CDB7DEB79D
:1020F000A1970FB6F894DEBF0FBECDBF7C01CB0118
:10210000BA01F701118210821382128215821482A1
:102110008E010F5F1F4F22E044E00E94C421BC01EA
:10212000C70173DAA1960FB6F894DEBF0FBECDBF1C
:10213000DF91CF911F910F91FF90EF9008950F9332
:102140001F93CF93DF93CDB7DEB762970FB6F894A6
:10215000DEBF0FBECDBF8C01CB01F8011182108212
:1021600013821282158214824AE0BE016F5F7F4F94
:102170000E940922BE016F5F7F4FC80146DA629656
:102180000FB6F894DEBF0FBECDBFDF91CF911F9188
:102190000F9108950F931F93CF93DF93CDB7DEB7C1
:1021A00029970FB6F894DEBF0FBECDBF8C01862FE6
:1021B000F8011182108213821282158214824AE081
:1021C000BE016F5F7F4F90E00E942822BE016F5FCB
:1021D0007F4FC8011ADA29960FB6F894DEBF0FBEFA
:1021E000CDBFDF91CF911F910F9108958F929F9254
:1021F000AF92BF92CF92DF92EF92FF9259D2BC0181
:10220000990F880B990B0E94A1246B017C0120E09F
:1022100030E44CE156E40E94DC244B015C01A70150
:10222000960160E070EC8FE794E40E94B2259B0178
:10223000AC01C501B4010E9417260E9484266B01DF
:102240007C012CE63FEC48E554E30E94DC24A70126
:1022500096010E94DC24A70196010E94DC244B0118
:102260005C0126ED34E649E759E3C701B6010E9457
:10227000DC242BEC38E444E85AE30E94B3259B01AC
:10228000AC01C501B4010E94B3259B01AC0160E023
:1022900070E080E89FE30E94172623E333E948E8D3
:1022A00053E40E94B225FF90EF90DF90CF90BF9053
:1022B000AF909F908F90089520E5FC01208321E04E
:1022C0002183089590E0FC013197E231F10508F097
:1022D0004EC08827EE58FF4F8F4F0C94F726809101
:1022E00080008F7703C0809180008F7D8093800075
:1022F000089580918000877FF9CF84B58F7702C0E1
:1023000084B58F7D84BD08958091B0008F7703C020
:102310008091B0008F7D8093B000089580919000EF
:102320008F7707C0809190008F7D03C080919000CF
:10233000877F8093900008958091A0008F7707C0D9
:102340008091A0008F7D03C08091A000877F809343
:10235000A0000895809120018F7707C0809120010F
:102360008F7D03C080912001877F80932001089595
:102370003FB7F8948091990590919A05A0919B059B
:10238000B0919C0526B5A89B05C02F3F19F001967A
:10239000A11DB11D3FBFBA2FA92F982F8827820FEB
:1023A000911DA11DB11DBC01CD0142E0660F771F3B
:1023B000881F991F4A95D1F70895FC0184E692E0A1
:1023C000918380831282138214821582138612866F
:1023D00048EE53E060E070E0448755876687778772
:1023E0002DE732E031872087978B868B108E118EF8
:1023F000128E138E88E080A3089588E00895CF930D
:10240000DF93282F30E0F901E65AFC4F8491F9015F
:10241000EC5EFC4FD491F901E253FD4FC491CC2303
:1024200089F081114FDFEC2FF0E0EE0FFF1FEC542D
:10243000FD4FA591B491EC91ED2381E090E021F462
:1024400080E002C080E090E0DF91CF9108951F937B
:10245000CF93DF93282F30E0F901E65AFC4F8491A7
:10246000F901EC5EFC4FD491F901E253FD4FC491A8
:10247000CC23B9F0162F811125DFEC2FF0E0EE0F01
:10248000FF1FE656FD4FA591B4919FB7F894111127
:1024900004C08C91D095D82302C0EC91DE2BDC9344
:1024A0009FBFDF91CF911F910895CF93DF9390E06D
:1024B000FC01EC5EFC4F2491FC01E253FD4F849142
:1024C000882361F190E0880F991FFC01E058FD4FCF
:1024D000C591D491FC01E656FD4FA591B4916111CF
:1024E00009C09FB7F8948881209582238883EC9156
:1024F0002E230BC0623061F49FB7F8948881322F8D
:10250000309583238883EC912E2B2C939FBF06C09C
:102510008FB7F894E8812E2B28838FBFDF91CF915E
:1025200008951F93CF93DF93182FEB0161E0BDDF78
:10253000209711F460E004C0CF3FD10531F461E091
:10254000812FDF91CF911F9182CFE12FF0E0E65AEA
:10255000FC4FE4918E2F90E0FC013197E231F105C0
:1025600008F09DC08827EC57FF4F8F4F0C94F7263B
:1025700084B5806884BDC7BD97C084B5806284BDC2
:10258000C8BD92C080918000806880938000D09305
:102590008900C093880088C0809180008062809309
:1025A0008000D0938B00C0938A007EC08091800011
:1025B000886080938000D0938D00C0938C0074C09D
:1025C0008091B00080688093B000C093B3006CC06D
:1025D0008091B00080628093B000C093B40064C06A
:1025E00080919000806880939000D0939900C09370
:1025F00098005AC080919000806280939000D093A0
:102600009B00C0939A0050C0809190008860809396
:102610009000D0939D00C0939C0046C08091A00084
:1026200080688093A0008091A0008F7B8093A000A1
:10263000D093A900C093A80037C08091A000806209
:102640008093A000D093AB00C093AA002DC08091CE
:10265000A00088608093A000D093AD00C093AC0030
:1026600023C080912001806880932001D0932901AC
:10267000C093280119C080912001806280932001BD
:10268000D0932B01C0932A010FC080912001886054
:1026900080932001D0932D01C0932C0105C0C03838
:1026A000D1050CF04CCF46CFDF91CF911F9108950B
:1026B000863308F0865390917B00282F2870977FEF
:1026C000922B90937B008770806480937C00809134
:1026D0007A00806480937A0080917A0086FDFCCF36
:1026E000809178002091790090E0922B08958F924C
:1026F0009F92AF92BF92CF92DF92EF92FF926B01C7
:102700007C0136DE4B015C01C114D104E104F1040B
:10271000E9F02EDEDC01CB0188199909AA09BB0971
:10272000883E9340A105B10578F321E0C21AD10893
:10273000E108F10888EE880E83E0981EA11CB11C08
:10274000C114D104E104F10421F7DECFFF90EF9032
:10275000DF90CF90BF90AF909F908F9008952FB74C
:10276000F8946091950570919605809197059091E8
:1027700098052FBF08954F925F926F927F928F922C
:102780009F92AF92BF92CF92DF92EF92FF920F9300
:102790001F93CF93DF93CDB7DEB763970FB6F8944F
:1027A000DEBF0FBECDBF7C015B013A01FB0120E023
:1027B00080E090E06AE03191332309F140ED430F6E
:1027C0004A3080F4689FA001699F500D1124CA010E
:1027D000C097830F911D37FD9A958F3F910559F34F
:1027E00050F313C03E3289F4233079F0D301A20FA5
:1027F000B11D12968C932F5F80E090E0DCCF2330E8
:1028000021F4F301858381E020C0F70142815381E7
:10281000648175818091FE049091FF04A091000570
:10282000B0910105481759076A077B0709F48CC165
:1028300096DF8701085F1F4F6F7077277C5FC801A5
:102840000E947604813019F080E090E0D5C184E6E2
:1028500092E09A838983F70182819381A481B58173
:102860008B839C83AD83BE8345E350E0BE016F5FE5
:102870007F4FC8010E949306892B19F4C12CD12CDB
:102880005EC16DDFF7017783668342E050E0B701F8
:102890006A5F7F4FC8010E940F0681E090E09A8333
:1028A000898342E050E0BE016F5F7F4FC8010E9404
:1028B0000F0680E091E09A83898342E050E0BE01F8
:1028C0006F5F7F4FC8010E940F061A82198242E093
:1028D00050E0BE016F5F7F4FC8010E940F0642E0CB
:1028E00050E0BE016F5F7F4FC8010E940F0642E0BB
:1028F00050E0BE016F5F7F4FC8010E940F06450187
:10290000F5018081882301F164015601F60181916E
:102910002F01882321F08E3211F06201F6CFC81802
:10292000D9081C141D0474F4CD8641E050E0BE01AA
:10293000635F7F4FC8010E940F06A601B401C80162
:102940000E940F064201DCCF1D8641E050E0BE012F
:10295000635F7F4FC8010E940F06C12CDD24D39412
:10296000DA82C98242E050E0BE016F5F7F4FC8014A
:102970000E940F06DA82C98242E050E0BE016F5F1A
:102980007F4FC8010E940F06C8010E945606892B7E
:1029900009F474CFE3E0AE2EB12C230122E0420E05
:1029A000511CDDDE3B014C01C8010E94B303181627
:1029B000190694F0D4DEDC01CB0186199709A80929
:1029C000B90989389341A105B105C8F462E370E003
:1029D00080E090E08CDEE8CFF70142815381648192
:1029E0007581808D918DA28DB38D481759076A0727
:1029F0007B0749F4848D958DC59729F409C0CC24B3
:102A0000CA94DC2C93C05EEFC52EDD24DA948EC010
:102A1000F70181A192A10C970CF4E9C04CE050E0C1
:102A2000BE016F5F7F4FC8010E943F038B819C8175
:102A30009827892798279A8B898BF7014681578198
:102A400029813A814217530709F0C2C097FFC0C0DD
:102A50008F709270892B09F0C0C06F8078847624C3
:102A6000672476246114710409F4BCC0C12CD12CF4
:102A70008D819E81982789279827C816D90608F442
:102A800066C0812C912C41E050E0BE016D5E7F4F0D
:102A9000C8010E943F034B89842F807C09F076C0D7
:102AA000442331F050E060E070E0C8010E943F0331
:102AB0008B898111E8CF42E050E0BE01615F7F4F1A
:102AC000C8010E943F0342E050E0BE01635F7F4FB8
:102AD000C8010E943F0344E050E060E070E0C8019C
:102AE0000E943F0342E050E0BE016F5E7F4FC8018D
:102AF0000E943F038F85988949895A8981159140A1
:102B000009F04DC0CD84DE84DC24CD24DC2481E0BA
:102B1000C816D10409F043C04115544009F053C010
:102B200044E050E0B201C8010E943F0321E0A21A34
:102B3000B10829F0FFEFCF16DF0609F432CFC80144
:102B40000E940803C60158C08EEF9FEF55C041E0B8
:102B500050E0BE01635F7F4FC8010E943F034D8577
:102B6000442331F050E060E070E0C8010E943F0370
:102B70008D858111ECCF44E050E060E070E0C80149
:102B80000E943F03FFEFCF1ADF0A72CF41E050E00F
:102B900060E070E0C8010E943F031B8A89CF542780
:102BA0004527542760E070E0C8010E943F03FFEF13
:102BB0008F1A9F0A6814790409F065CF96EFC92E21
:102BC000DD24DA94B3CF77EFC72EDD24DA94AECFCD
:102BD0004CEFC42EDD24DA94A9CF3BEFC32EDD24C5
:102BE000DA94A4CF2AEFC22EDD24DA949FCF8DEFA2
:102BF000C82EDD24DA949ACF63960FB6F894DEBF20
:102C00000FBECDBFDF91CF911F910F91FF90EF903D
:102C1000DF90CF90BF90AF909F908F907F906F90FC
:102C20005F904F900895E0E0F0E080818083089508
:102C3000E0E0F0E08081808308958EBD00000DB457
:102C400007FEFDCF8EB50895982F990F990F990F14
:102C500080E090540895FF920F931F93CF93DF93DA
:102C60001F921F92CDB7DEB7F82E22E030E0AE0102
:102C70004F5F5F4F66E270E00E94010609811A8192
:102C800010270127102722E030E0AE014F5F5F4F91
:102C900066E270E08F2D0E94010689819A81982753
:102CA000892798270817190711F08C01ECCFC80164
:102CB0000F900F90DF91CF911F910F91FF9008958A
:102CC000CF92DF92EF92FF920F931F93CF93DF93F8
:102CD00000D01F92CDB7DEB78C016B017A01A8DF5F
:102CE0000F3F110509F020F419820A831B821DC0D1
:102CF00017FD0BC019820A8333E0169507953A95A4
:102D0000E1F7007E08600B8310C0C80126E09695AD
:102D100087952A95E1F719830A83807E0115104C67
:102D200010F4806101C088618B8363E070E0CE01A4
:102D30000196D6D8A70160E070E0C6010E940D2977
:102D4000E114F10419F0B701C601CAD86CDFC7015C
:102D50000F900F900F900F90DF91CF911F910F91D7
:102D6000FF90EF90DF90CF900895CF92DF92EF9297
:102D7000FF920F931F93CF93DF93CDB7DEB72897C2
:102D80000FB6F894DEBF0FBECDBF8C017B016A0188
:102D90004FDF0F3F110509F020F419820A8384E008
:102DA0001CC017FD0BC019820A8333E016950795E6
:102DB0003A95E1F7007E0C600B8310C0C80126E055
:102DC000969587952A95E1F719830A83807E0115E8
:102DD000104C10F4846101C08C618B8386E0C816AE
:102DE000D104D0F420E0822F90E08C159D0568F48A
:102DF000E4E0F0E0EC0FFD1FE80FF91FD701A80F8A
:102E0000B91F8C9180832F5FEECFB6016D5F7F4F2E
:102E1000CE01019665D80FC063E070E0CE01019647
:102E20005FD887010C0D1D1DF70181917F0105DF22
:102E3000E016F106C9F7F7DEC60128960FB6F8943A
:102E4000DEBF0FBECDBFDF91CF911F910F91FF90DD
:102E5000EF90DF90CF9008957F928F929F92AF92E4
:102E6000BF92CF92DF92EF92FF920F931F93CF9377
:102E7000DF931F921F92CDB7DEB7782E8B014A01E8
:102E8000590122E030E0AE014F5F5F4F64E270E035
:102E90000E940106E980FA80FE24EF24FE24E00E61
:102EA000F11E97013770C72CD12C60E1C60ED11CE2
:102EB000DC2CCC24DD0CDD0CDD0CC9018C0D9D1D42
:102EC000A9014A0D5B1D4130584018F4A501B40119
:102ED0000EC000E018E0021B130BA801B40145DF8F
:102EE000A501401B510BB401600F711FC6013DDFEE
:102EF000EA0CFB1CF982EA8222E030E0AE014F5F6F
:102F00005F4F64E270E0872D0E94C6050F900F901E
:102F1000DF91CF911F910F91FF90EF90DF90CF90B5
:102F2000BF90AF909F908F907F900895EF92FF9207
:102F30001F93CF93DF931F921F92CDB7DEB7182F49
:102F400022E030E0AE014F5F5F4F60E270E00E9430
:102F50000106E980FA80FE24EF24FE2422E030E01E
:102F6000AE014F5F5F4F60E270E0812F0E9401066B
:102F700089819A81982789279827E816F90611F000
:102F80007C01ECCF87E0189FF0011124E356FA4F43
:102F9000F582E482C7010F900F90DF91CF911F91CE
:102FA000FF90EF900895FF920F931F93CF93DF93BD
:102FB0001F921F92CDB7DEB7F82ECE0101967CD9B5
:102FC00089819A810E940C068F2DB0DF8C018F2D94
:102FD0000E94FE05F82E0E940B0687E1F81631F0DC
:102FE0008CE1F81619F080E090E001C0C8010F9064
:102FF0000F90DF91CF911F910F91FF900895AF92A5
:10300000BF92CF92DF92EF92FF920F931F93CF93D5
:10301000DF931F921F92CDB7DEB7F82E6B018A01A6
:103020004130584010F000E018E0CE01019644D93C
:1030300089819A810E940C068F2D78DF5C018F2D8B
:103040000E94FE05E82E0E940B0687E1E81619F0A3
:103050008CE1E81204C0A016B10638F302C000E00B
:1030600010E0CE01019628D989819A810E940C0630
:103070009801A60160E070E08F2DEEDE60E270E066
:103080008F2D0E948A0F62E070E08F2D0E94E7056D
:1030900084FD14C08F2D0E94FE05811105C00E9481
:1030A0000B0680E090E013C00E940B06CE01019653
:1030B00003D989819A810E940C06E5CF40E162E044
:1030C00070E08F2D0E94D0050E940B06C8010F9062
:1030D0000F90DF91CF911F910F91FF90EF90DF90B4
:1030E000CF90BF90AF9008951F93CF93DF931F921F
:1030F0001F92CDB7DEB7182FCE010196DDD889819A
:103100009A810E940C06812F9FDD27E0129FF0011B
:103110001124E356FA4F22813381377041E050E0A9
:10312000BE016F5F7F4F820F931FCADD0E940B06A7
:1031300089810F900F90DF91CF911F910895EF92A9
:10314000FF920F931F93CF93DF931F921F92CDB7E0
:10315000DEB7482F87E0489F90011124F901E3561C
:10316000FA4F7F01808191810097A9F4142FCE013D
:103170000196A2D889819A810E940C06812F6BDD6D
:103180008C010E940B06F70186819801281B3109EA
:10319000C901318320830F900F90DF91CF911F9150
:1031A0000F91FF90EF9008953F924F925F926F9230
:1031B0007F928F929F92AF92BF92CF92DF92EF92C7
:1031C000FF920F931F93CF93DF931F921F92CDB760
:1031D000DEB7382E6B017A01A82EB12C27E0829F32
:1031E000C0011124AC0143565A4F4A01FA01008133
:1031F0001181CE01019660D889819A810E940C06C6
:103200000E151F054CF4832D26DDF40126818C015B
:10321000021B1109118300830115110599F4832DF7
:103220000E94FE05843109F477C0882309F474C034
:1032300001E010E08C3111F400E010E011950195EF
:1032400011096AC0E016F1060CF4870187E08A9D37
:10325000F0018B9DF00D1124E356FA4F428053800C
:10326000C114D10411F13201F7E07F22832DECDC8F
:103270004C01C301880D991D9801260D371D213081
:10328000384018F4A801B6010FC060E078E07B0177
:10329000E618F708A701B60113DDA8014E195F096A
:1032A000B6016E0D7F1DC4010BDD400E511E87E07F
:1032B0008A9DF0018B9DF00D1124E356FA4F538245
:1032C000428280819181801B910B91838083268132
:1032D000A801420F511D4A3F510510F4892BD9F422
:1032E00087E08A9DF0018B9DF00D1124E356FA4F83
:1032F000168259824A8222E030E0AE014F5F5F4F72
:1033000068E270E0832D0E94C60560E470E0832DC2
:103310000E948A0F01C046830E940B06C8010F90CD
:103320000F90DF91CF911F910F91FF90EF90DF9061
:10333000CF90BF90AF909F908F907F906F905F9055
:103340004F903F9008951F93CF93DF931F921F924A
:10335000CDB7DEB7182FCE0101960E945C1189818E
:103360009A810E940C0668E070E0812F0E948A0F0B
:103370000E940B060F900F90DF91CF911F9108953F
:103380001F93CF93DF931F921F92CDB7DEB7182FF5
:10339000CE0101960E945C1189819A810E940C06DF
:1033A00060E170E0812F0E948A0F0E940B060F904F
:1033B0000F90DF91CF911F9108951F93CF93DF93CB
:1033C0001F921F92CDB7DEB7182FCE0101960E9433
:1033D0005C1189819A810E940C06812F0E94FE0552
:1033E000182F0E940B06812F0F900F90DF91CF9125
:1033F0001F910895CF93DF931F921F92CDB7DEB731
:1034000079836A8322E030E0AE014F5F5F4F60E175
:1034100070E00E94C6050F900F90DF91CF91089544
:10342000CF93DF931F921F92CDB7DEB779836A8364
:1034300022E030E0AE014F5F5F4F64E070E00E9439
:10344000C6050F900F90DF91CF91089588E0089501
:103450001F920F920FB60F9211242F933F938F93C9
:103460009F93AF93BF938091950590919605A091FE
:103470009705B09198053091E50523E0230F2D378E
:1034800020F40196A11DB11D05C026E8230F029668
:10349000A11DB11D2093E505809395059093960598
:1034A000A0939705B09398058091990590919A05FE
:1034B000A0919B05B0919C050196A11DB11D809323
:1034C000990590939A05A0939B05B0939C05BF9195
:1034D000AF919F918F913F912F910F900FBE0F90C1
:1034E0001F901895CF93DF93CDB7DEB7CE56D10995
:1034F0000FB6F894DEBF0FBECDBF789484B582605E
:1035000084BD84B5816084BD85B5826085BD85B587
:10351000816085BD80916E00816080936E00109205
:103520008100809181008260809381008091810080
:103530008160809381008091800081608093800011
:103540008091B10084608093B1008091B00081606F
:103550008093B0008091910082608093910080916F
:1035600091008160809391008091900081608093B0
:1035700090008091A10082608093A1008091A100C1
:1035800081608093A1008091A00081608093A00061
:1035900080912101826080932101809121018160CD
:1035A000809321018091200181608093200180918E
:1035B0007A00846080937A0080917A0082608093A0
:1035C0007A0080917A00816080937A0080917A00FD
:1035D000806880937A001092C10062E082E00E94CD
:1035E000551262E083E00E94551262E082E10E947F
:1035F000551262E083E10E94551262E084E10E946C
:10360000551260E08EE00E94551260E08FE00E944B
:10361000551260E080E10E945512E0915D04F09146
:103620005E0482E08083E0915904F0915A04108294
:10363000E0915B04F0915C0480E18083109265046A
:10364000E0916104F091620486E08083E0915F0480
:10365000F0916004808180618083E0915F04F0914B
:103660006004808188608083E0915F04F091600451
:10367000808180688083E0915F04F09160048081A4
:103680008F7D808361E080E20E94551261E081E2DB
:103690000E94551261E082E20E94551261E083E2CD
:1036A0000E94551261E084E20E94551261E085E2B9
:1036B0000E94551261E086E20E94551261E087E2A5
:1036C0000E94551261E088E00E9455121092940306
:1036D0001092930310929203109291031092900310
:1036E00081E080938F0310928E0361E084E10E9459
:1036F000271261E085E10E9427128091B9008E7F38
:103700008093B9008091B9008D7F8093B90088E4DF
:103710008093B80085E48093BC008FEA99E0909391
:103720008D0380938C0380EB99E090938B038093BF
:103730008A0310920D0580911205823018F098E0EE
:1037400090930D058093100562E370E080E090E0B7
:103750000E9477136091130588E095E00E94DD0ECA
:1037600068EE73E080E090E00E94771360E388E009
:1037700095E00E94400F0BE416E4C8010197F1F7B1
:1037800060E388E095E00E94400FC8010197F1F7DF
:1037900060E388E095E00E94400F83E592E00197A6
:1037A000F1F760E288E095E00E94400F60910D051E
:1037B000606240E088E095E00E94560F84E08093CC
:1037C0000E0540E06CE088E095E00E94560F40E076
:1037D00061E088E095E00E94560F0BE31FE1C8010D
:1037E0000197F1F782E080930F0540E066E088E002
:1037F00095E00E94560F40E062E088E095E00E946C
:10380000560FC8010197F1F788E08093130560E037
:1038100088E095E00E94DD0E60E081E00E94CB0F21
:1038200063EA72E088E095E00E94A80C61E080E025
:103830000E94CB0F6EEA72E088E095E00E94A80C2F
:1038400089EB92E0909301028093000280916A00DC
:10385000836080936A00EC9A8FEA92E0909303026F
:103860008093020280916A008C6080936A00ED9AD6
:1038700085EA92E090930B0280930A02809169009E
:10388000806C80936900EB9A8BE992E09093090237
:103890008093080280916900806380936900EA9AAE
:1038A00081E992E09093070280930602809169007B
:1038B0008C6080936900E99A0E94AF136B017C01D0
:1038C00080919F039091A003A091A103B091A203C6
:1038D000A7019601281B390B4A0B5B0BDA01C901C2
:1038E000883E9340A105B10508F427C286E390E025
:1038F0000E94F61060932B0570932C0580932D0584
:1039000090932E0587E390E00E94F61060932F05B8
:1039100070933005809331059093320588E390E0F1
:103920000E94F6106093330570933405809335053B
:103930009093360589E390E00E94F6106093370576
:10394000709338058093390590933A058FE30E9470
:10395000581390934605809345058EE30E945813B3
:10396000909344058093430580E40E9458139093FC
:103970004805809347058AE30E945813BC01990FBC
:10398000880B990BDED760933B0570933C058093C1
:103990003D0590933E058BE30E945813BC01990F9F
:1039A000880B990BCED760933F05709340058093A9
:1039B0004105909342058EE00E94FF1180932805F7
:1039C0008FE00E94FF118093290580E10E94FF1182
:1039D00080932A05682FCE0187599F4F0E94CA10F5
:1039E00060912905CE018D599F4F0E94CA106091A8
:1039F0002805CE01835A9F4F0E94CA10609151053D
:103A000070915205CE01895A9F4F0E949F1060917C
:103A10004F0570915005CE018F5A9F4F0E949F1005
:103A200060914D0570914E05CE01855B9F4F0E94C0
:103A30009F1060914B0570914C05CE018B5B9F4FA1
:103A40000E949F106091490570914A05CE01CF9662
:103A50000E949F106091470570914805CE01C9965C
:103A60000E949F106091430570914405CE01C3965A
:103A70000E949F106091450570914605CE018D967C
:103A80000E949F104091370550913805609139058B
:103A900070913A05CE0187960E94701040913305CF
:103AA000509134056091350570913605CE018196AF
:103AB0000E94701040912F055091300560913105A2
:103AC00070913205CE014B960E94701040912B05EB
:103AD00050912C0560912D0570912E05CE01019617
:103AE0000E947010BE016F5F7F4FCE0145960E940D
:103AF000340B6CEB72E0CE0145960E94DD0ABE01EC
:103B0000655E7F4F0E94F40A6CEB72E00E94DD0A52
:103B1000BE016F5D7F4F0E94F40A6CEB72E00E9461
:103B2000DD0ABE01695D7F4F0E94F40A6CEB72E012
:103B30000E94DD0ABE01635D7F4F0E94F40A6CEBB8
:103B400072E00E94DD0ABE016D5C7F4F0E94F40AA4
:103B50006CEB72E00E94DD0ABE01675C7F4F0E9441
:103B6000F40A6CEB72E00E94DD0ABE01615C7F4FDB
:103B70000E94F40A6CEB72E00E94DD0ABE016B5BEE
:103B80007F4F0E94F40A6CEB72E00E94DD0ABE01D6
:103B9000655B7F4F0E94F40A6CEB72E00E94DD0AC5
:103BA000BE016F5A7F4F0E94F40A6CEB72E00E94D4
:103BB000DD0ABE01695A7F4F0E94F40A6CEB72E085
:103BC0000E94DD0ABE01635A7F4F0E94F40A6CEB2B
:103BD00072E00E94DD0ABE016D597F4F0E94F40A17
:103BE0006CEB72E00E94DD0ABE0167597F4F0E94B4
:103BF000F40ABC0183E595E00E941A0BCE014596BC
:103C00000E942F0BCE0101960E942F0BCE014B96E6
:103C10000E942F0BCE0181960E942F0BCE0187961A
:103C20000E942F0BCE018D960E942F0BCE01C396C2
:103C30000E942F0BCE01C9960E942F0BCE01CF966A
:103C40000E942F0BCE018B5B9F4F0E942F0BCE014A
:103C5000855B9F4F0E942F0BCE018F5A9F4F0E9472
:103C60002F0BCE01895A9F4F0E942F0BCE01835AF2
:103C70009F4F0E942F0BCE018D599F4F0E942F0BFB
:103C8000CE0187599F4F0E942F0B80919D039091E9
:103C90009E0320919B0330919C0340919903509186
:103CA0009A036091970370919803E0919503F091C6
:103CB0009603F0934A05E093490570934C05609391
:103CC0004B0550934E0540934D053093500520937E
:103CD0004F059093520580935105109296031092D0
:103CE0009503109298031092970310929A031092E2
:103CF000990310929C0310929B0310929E031092C2
:103D00009D0363E575E082E095E00E941A0B62E096
:103D100075E0CE0101960E94340BCE0101960E94FF
:103D20003F10CE0101960E942F0BC0929F03D092AC
:103D3000A003E092A103F092A2038DE494E00E941C
:103D4000A108181619060CF06CC1CE014B960E9402
:103D50001E106EEB72E0CE014B960E94910A8823F2
:103D600019F01092170519C16EEC72E0CE014B9656
:103D70000E94910A882321F081E0809317050DC1EC
:103D80006DED72E0CE014B960E94910A882319F0E6
:103D90001092160502C168EE72E0CE014B960E94A9
:103DA000910A882321F081E080931605F6C062EF26
:103DB00072E0CE014B960E94910A882319F010926E
:103DC0001805EBC06EEF72E0CE014B960E94910A8F
:103DD000882321F081E080931805DFC069E073E05B
:103DE000CE014B960E94910A882319F01092190572
:103DF000D4C065E173E0CE014B960E94910A8823FE
:103E000021F081E080931905C8C060E273E0CE0123
:103E10004B960E94910A882319F010921A05BDC092
:103E20006CE273E0CE014B960E94910A882321F048
:103E300081E080931A05B1C067E373E0CE014B9631
:103E40000E94910A882319F010921B05A6C063E412
:103E500073E0CE014B960E94910A882321F081E005
:103E600080931B059AC06EE473E0CE014B960E94CE
:103E7000910A882319F0109215058FC06AE573E046
:103E8000CE014B960E94910A882321F081E0809315
:103E9000150583C065E673E0CE014B960E94910A3A
:103EA000882319F01092140578C064E773E0CE01FE
:103EB0004B960E94910A882321F081E0809314059B
:103EC0006CC0BE01655E7F4FCE0101960E94340B2F
:103ED00040E050E0BE016F5F7F4FCE01459698D124
:103EE0008D899E89009711F06ED203C060E070E06A
:103EF000CB017B01CE0145960E942F0BCE0101968E
:103F00000E942F0BBE01655E7F4FCE0101960E947D
:103F1000340B41E050E0BE016F5F7F4FCE0145960C
:103F200077D18D899E89009711F04DD203C060E052
:103F300070E0CB018B01CE0145960E942F0BCE0184
:103F400001960E942F0B80911E0590911F05E81687
:103F5000F90639F480912005909121050817190779
:103F6000D1F081E080931D05B7016F3F710519F015
:103F700010F06FEF70E070931F0560931E05B8019D
:103F80000F3F110519F010F06FEF70E070932105ED
:103F90006093200502C010921D05CE0101960E947B
:103FA0001E10CE014B960E942F0BCE0101960E944F
:103FB0002F0B809114058983809115058A83809148
:103FC00016058B83809117058C83809118058D834E
:103FD000809119058E8380911A058F8380911B052E
:103FE000888780911C05898780911D058A8780912B
:103FF0001E0590911F059C878B87809120059091CD
:1040000021059E878D8762E275E0CE010F960E94A2
:10401000340BCE0101960E94F90FCE010F960E943B
:104020002F0B0E94450948CC82E095E00E942F0B9F
:1040300082E295E00E942F0B83E595E00C942F0B14
:10404000EDE4F4E01382128288EE93E0A0E0B0E0A9
:1040500084839583A683B78322E232E03183208371
:1040600025EC30E03587248724EC30E0378726873D
:1040700020EC30E0318B208B21EC30E0338B228B35
:1040800022EC30E0358B248B26EC30E0378B268B0E
:10409000118E128E138E148EEAEEF4E013821282C9
:1040A00084839583A683B78386E492E0918380839B
:1040B000E9E5F5E084E692E0918380831282138241
:1040C00014821582EFE5F5E09183808312821382DA
:1040D00014821582E5E6F5E09183808312821382D3
:1040E00014821582EBE6F5E09183808312821382BD
:1040F00014821582E1E7F5E09183808312821382B6
:1041000014821582E7E7F5E091838083128213829F
:1041100014821582E6EFF4E0918380831282138289
:1041200014821582ECEFF4E0918380831282138273
:1041300014821582EDE7F5E0918380831282138269
:1041400014821582E3E8F5E0918380831282138262
:1041500014821582E9E8F5E091838083128213824C
:1041600014821582EFE8F5E0918380831282138236
:1041700014821582E8E2F5E0108211821282138225
:104180001482158216821782108611861286138673
:104190001486158616861786108A118A128A138A43
:1041A000148A158A168A178A108E118E128E148E12
:1041B000138E168E158E10A2178E12A211A214A2A3
:1041C00013A216A215A210A617A212A611A664E8A1
:1041D00073E083E595E00E943C0B64E873E082E2C3
:1041E00095E00E943C0BE8E0F5E01382128288E53E
:1041F00092E09183808387E2848380E1818782E0FB
:104200008287138664E873E082E095E00C943C0BAF
:10421000AF92BF92CF92DF92EF92FF920F931F93D4
:10422000CF93DF936C017B015A01DB0114962D9132
:104230003C91159789010150110940E050E00417A5
:1042400015074CF1B7FC51C04217530760F4F70152
:1042500080819181009739F0FC01E40FF51F808186
:104260008C3209F47AC00417150709F073C0EA010B
:104270002196052E000C660B770B2AE08DE494E066
:104280000E94BD0C62E873E08DE494E00E94A80CEB
:10429000AB2831F02CC0AB2809F065C0CFEFDFEFC1
:1042A00064E873E0C6010E943C0BD70114968D911F
:1042B0009C911597009709F45BC08C179D0708F433
:1042C000EC01D701ED91FC911197EC0FFD1F1081CE
:1042D00010826D917C91C6010E94050BF7018081CF
:1042E0009181C80FD91F188343C0CFEFDFEF0F5F55
:1042F0001F4F21960C171D0728F0902F812F8E013C
:10430000C92FD82F64E873E0C6010E943C0BD70187
:104310001496AD90BC9015970A151B0548F5CA1563
:10432000DB0508F45E01D701ED91FC911197EA0DD0
:10433000FB1DC08110826D917C91600F711FC601C1
:104340000E94050BF70180819181FC01EA0DFB1DA4
:10435000C0830EC04F5F5F4F72CF0417150709F47B
:1043600086CFEA0186CF0F5F1F4FC0E0D0E0C5CFF8
:10437000C601DF91CF911F910F91FF90EF90DF90D9
:10438000CF90BF90AF900895EF920F931F93CF936C
:10439000DF93E80147FD02C034E001C034E1042EA0
:1043A000000C550B57FF03C0519541955109E32E61
:1043B000022F242FAE0165D0CE01DF91CF911F9146
:1043C0000F91EF9008951F93FC0199278827BC0156
:1043D000E89411911032E9F3193010F01E30C8F34F
:1043E0001B3249F01D3241F4689405C01CD0610FA6
:1043F000711D811D911D119110531A30B8F33EF4B7
:1044000090958095709561957F4F8F4F9F4F1F912D
:104410000895BB274A3031F4992322F4BDE29095E8
:1044200081959F4F16C0592F482F372F262F660F83
:10443000771F881F991F660F771F881F991F620FAC
:10444000731F841F951F660F771F881F991F08957C
:10445000BB27FB015527AA27880F991FAA1FA4175E
:1044600010F0A41B83955051B9F7A05DAA3308F052
:10447000A95DA193009779F7B111B1931192CB0186
:104480004EC28F929F92AF92BF92CF92DF92EF92E5
:10449000FF920F931F93CF93DF93CDB7DEB729978A
:1044A0000FB6F894DEBF0FBECDBF6A01122FB02E3B
:1044B0002BE3201720F0FF24F394F00E02C02CE32E
:1044C000F22E0F2D27E0AE014F5F5F4F50D1BC01A0
:1044D0004981842F8970813031F0E1FC06C0E0FE13
:1044E00006C090E205C09DE203C09BE201C090E0DF
:1044F0005E2D507143FF3CC0911102C083E001C0AA
:1045000084E0811718F4212F281B01C020E05111ED
:104510000BC0F601822F30E2882319F031938150CD
:10452000FBCFC20ED11C20E0992329F0D6019C9329
:10453000F60131966F01C6010396E2FE0AC03EE421
:10454000D6013C9341E411964C93119712963C93FB
:1045500006C03EE6F601308341E641833283FC012A
:10456000322F40E2332309F442C041933150FACF55
:1045700042FF44C0911102C083E001C084E0811772
:1045800018F4212F281B01C020E051110BC0F601A7
:10459000822F30E2882319F031938150FBCFC20E75
:1045A000D11C20E0992329F0D6019C93F601319685
:1045B0006F01C6010396E2FE0BC039E4D6013C93BD
:1045C0003EE411963C93119736E412963C9307C053
:1045D00039E6F60130833EE6318336E63283FC016C
:1045E000322F40E2332319F041933150FBCFFC01CD
:1045F000E20FF11D10828EEF9FEFA6C021E030E0A8
:10460000911102C020E030E0161617061CF4FB01E1
:10461000319602C0E1E0F0E02E0F3F1FBB2021F0F9
:10462000EB2DF0E0319602C0E0E0F0E02E0F3F1FEE
:10463000E12FF0E02E173F071CF4121B212F01C0C1
:1046400020E08E2D887159F4F601822F30E2882304
:1046500019F031938150FBCFC20ED11C20E0992379
:1046600029F0D6019C93F60131966F0151110BC0D0
:10467000F601822F90E3882319F091938150FBCFAC
:10468000C20ED11C20E00F2D060F9A81342F3071FD
:1046900044FF03C0913309F40150101624F409308B
:1046A00018F008E001C001E0AB0177FF02C040E074
:1046B00050E0FB01E41BF50BA1E0B0E0AC0FBD1F27
:1046C000EA0FFB1F8EE2A82E4B01801A91080B2DDA
:1046D00010E01195019511094F3FBFEF5B0721F4E1
:1046E000D601AC9211966D01641775072CF08416F3
:1046F000950614F4818101C080E34150510931963F
:10470000D60111967D014017510724F0D6018C93F4
:104710006701E2CF6417750739F4963320F49533B7
:1047200019F4311101C081E3F6018083F701822F72
:1047300090E2882319F091938150FBCFF701E20FAB
:10474000F11D108280E090E029960FB6F894DEBF4C
:104750000FBECDBFDF91CF911F910F91FF90EF90D2
:10476000DF90CF90BF90AF909F908F9008952830AA
:1047700008F027E03327DA01990F311D87FD91609A
:1047800000966105710539F432602E5F3D9330E388
:104790002A95E1F708959F3F30F080387105610553
:1047A00009F03C5F3C5F3D93913008F08068911DBB
:1047B000DF93CF931F930F93FF92EF92192F987F60
:1047C0009695E92F96959695E90FFF27E052FE4FB3
:1047D00099273327EE24FF24A701E70105900894C9
:1047E000079428F4360FE71EF81E491F511D660F67
:1047F000771F881F991F0694A1F70590079428F446
:10480000E70EF81E491F561FC11D770F881F991FFD
:10481000661F0694A1F70590079428F4F80E491F27
:10482000561FC71FD11D880F991F661F771F06943B
:10483000A1F70590079420F4490F561FC71FD81FF2
:10484000990F661F771F881F0694A9F7849110950A
:10485000177041F0D695C79557954795F794E7940B
:104860001A95C1F7E6E8F1E0689415901591359135
:104870006591959105907FE27395E118F10A430BDC
:10488000560BC90BD009C0F7E10CF11E431F561F90
:10489000C91FD01D7EF4703311F48A95E6CFE894D9
:1048A000015030F0080F0AF40027021708F4202FF7
:1048B0002395022F7A3328F079E37D932A95E9F73F
:1048C00010C07D932A9589F606949795679537953C
:1048D00017951794E118F10A430B560BC90BD00931
:1048E00098F023957E9173957A3308F070E37C936A
:1048F0002013B8F77E9170617D9330F0839571E35A
:104900007D9370E32A95E1F71124EF90FF900F91CA
:104910001F91CF91DF91992787FD90950895DC0134
:10492000FC01672F71917723E1F7329704C07C91E6
:104930006D9370836291AE17BF07C8F30895E89432
:1049400009C097FB3EF490958095709561957F4FD7
:104950008F4F9F4F9923A9F0F92F96E9BB27939585
:10496000F695879577956795B795F111F8CFFAF495
:10497000BB0F11F460FF1BC06F5F7F4F8F4F9F4FC6
:1049800016C0882311F096E911C0772321F09EE824
:10499000872F762F05C0662371F096E8862F70E08A
:1049A00060E02AF09A95660F771F881FDAF7880F64
:1049B0009695879597F908950BD078C069D028F01F
:1049C0006ED018F0952309F05AC05FC01124A2C020
:1049D0007ED0A0F3959FD1F3950F50E0551F629FB5
:1049E000F001729FBB27F00DB11D639FAA27F00D48
:1049F000B11DAA1F649F6627B00DA11D661F829F6F
:104A00002227B00DA11D621F739FB00DA11D621F53
:104A1000839FA00D611D221F749F3327A00D611D70
:104A2000231F849F600D211D822F762F6A2F112452
:104A30009F5750408AF0E1F088234AF0EE0FFF1FA5
:104A4000BB1F661F771F881F91505040A9F79E3FDC
:104A5000510570F014C05EC05F3FECF3983EDCF38C
:104A6000869577956795B795F795E7959F5FC1F719
:104A7000FE2B880F911D9695879597F9089597F9C4
:104A80009F6780E870E060E008959FEF80EC0895F4
:104A900000240A941616170618060906089500241D
:104AA0000A9412161306140605060895092E039497
:104AB000000C11F4882352F0BB0F40F4BF2B11F40B
:104AC00060FF04C06F5F7F4F8F4F9F4F089557FD6A
:104AD0009058440F551F59F05F3F71F04795880F6C
:104AE00097FB991F61F09F3F79F087950895121603
:104AF00013061406551FF2CF4695F1DF08C01616AF
:104B000017061806991FF1CF86957105610508945F
:104B10000895E894BB2766277727CB0197F9089576
:104B2000A1E21A2EAA1BBB1BFD010DC0AA1FBB1FB1
:104B3000EE1FFF1FA217B307E407F50720F0A21B23
:104B4000B30BE40BF50B661F771F881F991F1A9490
:104B500069F760957095809590959B01AC01BD01BA
:104B6000CF0108955058BB27AA270ED09FCF90DFC2
:104B700030F095DF20F031F49F3F11F41EF485CF23
:104B80000EF4E095E7FB7BCFE92FA1DF80F3BA17A6
:104B9000620773078407950718F071F49EF5B9CF83
:104BA0000EF4E0950B2EBA2FA02D0B01B901900148
:104BB0000C01CA01A0011124FF27591B99F0593F8C
:104BC00050F4503E68F11A16F040A22F232F342FD4
:104BD0004427585FF3CF469537952795A795F04022
:104BE0005395C9F77EF41F16BA0B620B730B840B37
:104BF000BAF09150A1F0FF0FBB1F661F771F881FEF
:104C0000C2F70EC0BA0F621F731F841F48F4879546
:104C100077956795B795F7959E3F08F0B3CF939535
:104C2000880F08F09927EE0F9795879508950CD077
:104C30003DCF35DF40F02CDF30F021F45F3F19F03D
:104C40001ECF511167CF21CF42DF98F39923C9F3CB
:104C50005523B1F3951B550BBB27AA276217730782
:104C6000840738F09F5F5F4F220F331F441FAA1F36
:104C7000A9F333D00E2E3AF0E0E830D091505040F6
:104C8000E695001CCAF729D0FE2F27D0660F771FA4
:104C9000881FBB1F261737074807AB07B0E809F086
:104CA000BB0B802DBF01FF2793585F4F2AF09E3F1B
:104CB000510568F0E4CE2ECF5F3FECF3983EDCF375
:104CC000869577956795B795F7959F5FC9F7880F94
:104CD000911D9695879597F90895E1E0660F771FE6
:104CE000881FBB1F621773078407BA0720F0621B77
:104CF000730B840BBA0BEE1F88F7E09508950EF046
:104D000043C0C3CE6894BBCEEADEC8F39923D1F387
:104D1000C6F3DF93CF931F930F93FF92C92FDD2725
:104D200088232AF02197660F771F881FDAF720E083
:104D300030E040E85FEB9FE3883920F0803E30F0C0
:104D400021968F7710DFECE2F1E003C00CDFE9E59C
:104D5000F1E028D08B01BE01EC01FB2E6F577109E9
:104D60007595771F880B990BECDD28E132E741E35D
:104D70005FE32EDEAF2D9801AE01FF900F911F91E2
:104D8000CF91DF9101DF92CE9F3F31F0915020F41F
:104D9000879577956795B795880F911D9695879517
:104DA00097F90895DF93CF931F930F93FF92EF929C
:104DB000DF927B018C01689405C0DA2EEF0108DEDA
:104DC000FE01E894A5912591359145915591AEF359
:104DD000EF01DADEFE019701A801DA9479F7DF909E
:104DE000EF90FF900F911F91CF91DF910895EE0FFB
:104DF000FF1F881F8BBF0790F691E02D19940F932A
:104E00001F93CF93DF938230910510F482E090E0FE
:104E1000E091E805F091E90520E030E0A0E0B0E0A5
:104E2000309719F140815181028113814817590748
:104E3000C8F08417950769F4109731F012960C9317
:104E4000129713961C9327C00093E8051093E90569
:104E500022C02115310519F04217530718F49A01A1
:104E6000BD01EF01DF01F801DBCF21153105F9F0BC
:104E7000281B390B2430310580F48A819B81611510
:104E8000710521F0FB019383828304C09093E905AF
:104E90008093E805FE01329644C0FE01E20FF31F45
:104EA0008193919322503109398328833AC020910C
:104EB000E6053091E705232B41F420911202309151
:104EC00013023093E7052093E605209110023091FC
:104ED00011022115310541F42DB73EB7409114025E
:104EE00050911502241B350BE091E605F091E70582
:104EF000E217F307A0F42E1B3F0B2817390778F0B1
:104F0000AC014E5F5F4F2417350748F04E0F5F1F0F
:104F10005093E7054093E6058193919302C0E0E04A
:104F2000F0E0CF01DF91CF911F910F910895CF93C2
:104F3000DF93009709F481C0FC013297138212823B
:104F4000A091E805B091E905109781F420813181A5
:104F5000820F931F2091E6053091E7052817390746
:104F600051F5F093E705E093E60567C0ED0120E019
:104F700030E0CE17DF0740F44A815B819E01411586
:104F80005105F1F0EA01F5CFD383C283408151810D
:104F9000840F951FC817D90759F488819981840F08
:104FA000951F0296918380838A819B81938382835C
:104FB0002115310529F4F093E905E093E8053DC09A
:104FC000E901FB83EA8349915991C40FD51FEC177E
:104FD000FD0761F480819181840F951F0296E9019C
:104FE00099838883828193819B838A83E0E0F0E0C8
:104FF00012968D919C911397009719F0FD01DC0199
:10500000F7CF8D919C9111979D012E5F3F4F820F9D
:10501000931F2091E6053091E7052817390769F4B9
:10502000309729F41092E9051092E80502C0138226
:105030001282B093E705A093E605DF91CF91089522
:105040006F927F928F929F92AF92BF92CF92DF9298
:10505000EF92FF920F931F93CF93DF93009781F40A
:10506000CB01DF91CF911F910F91FF90EF90DF90D7
:10507000CF90BF90AF909F908F907F906F90BFCE5A
:10508000FC01E60FF71F9C0122503109E217F307DC
:1050900008F4A5C0EC01D9010D911C9111970617D8
:1050A0001707A8F00530110508F497C0C801049748
:1050B0008617970708F491C002501109061B170BB9
:1050C000019311936D937C93CF0131DF86C05B0117
:1050D000A01AB10A4C01800E911EA091E805B09172
:1050E000E905612C712CE12CF12C109709F446C0D4
:1050F0008D919C911197A815B905B1F56C0142E00D
:10510000C40ED11CCA14DB0478F14C018A189B0828
:10511000640142E0C40ED11C1296BC901297139603
:10512000AC91B5E0CB16D10440F0B282A38391825A
:105130008082D9016D937C9309C00E5F1F4F800F51
:10514000911FF90191838083EB2DFA2FE114F10473
:1051500031F0D7011396FC93EE9312973EC0F09373
:10516000E905E093E80539C06816790608F43C01C2
:105170007D0112960D90BC91A02DB7CF8091E605D0
:105180009091E70588169906E1F466167706C8F44B
:105190008091100290911102009741F48DB79EB753
:1051A0004091140250911502841B950BE817F907E2
:1051B000B0F4F093E705E093E605F90171836083AD
:1051C0000CC0CB011CDE7C01009749F0A801BE0198
:1051D0001BD0CE01ACDEC70104C0CE0102C080E00E
:1051E00090E0DF91CF911F910F91FF90EF90DF90B2
:1051F000CF90BF90AF909F908F907F906F900895C9
:1052000081E090E0F89420C0FB01DC0102C0019035
:105210000D9241505040D8F70895DC0101C06D93C4
:1052200041505040E0F70895FB01DC018D91019061
:1052300080190110D9F3990B0895FB01DC0101904D
:105240000D920020E1F7089511E0C1EDD1E000E0FA
:1052500005C0802FFE01CBDD2196011DC23DD10787
:0A52600080E00807B1F7F894FFCFD3
:10526A0045084508450845084508450845084508CC
:10527A000000EA058000000040001400540000000D
:10528A000000D808460870082409A1087F08930876
:10529A0000000000370A4608C402C302370A370A68
:1052AA00370A00000000090ADD09C402B109D5095C
:1052BA00C109B209000000006B0F4608C402C3020C
:1052CA0000000000050D00000000370A0000000081
:1052DA00370A4608C402C302000000000004020F95
:1052EA0006C402B1091A025E0316037604C702084D
:1052FA000393060F045606B3033F03880278027429
:10530A0002700252756E6E696E672E2E2E005365FC
:10531A007269616C20313135323030002C00434FD4
:10532A0032536F6C656E6F69643A4F464600434F5D
:10533A0032536F6C656E6F69643A4F4E00436F6FFC
:10534A006C65723A4F464600436F6F6C65723A4F0E
:10535A004E004C454447726F773A4F4646004C45DB
:10536A004447726F773A4F4E0052656C6179316EDD
:10537A003A4F46460052656C6179316E3A4F4E009B
:10538A0052656C6179326E3A4F46460052656C61DD
:10539A0079326E3A4F4E0052656C6179336E3A4FEC
:1053AA0046460052656C6179336E3A4F4E00555647
:1053BA004C696768743A4F46460055564C696768A7
:1053CA00743A4F4E0056616375756D50756D703A3B
:1053DA004F46460056616375756D50756D703A4F4C
:0A53EA004E000D0A003C003E0000DA
:020000023000CC
:10E000000D9489F10D94B2F10D94B2F10D94B2F129
:10E010000D94B2F10D94B2F10D94B2F10D94B2F1F0
:10E020000D94B2F10D94B2F10D94B2F10D94B2F1E0
:10E030000D94B2F10D94B2F10D94B2F10D94B2F1D0
:10E040000D94B2F10D94B2F10D94B2F10D94B2F1C0
:10E050000D94B2F10D94B2F10D94B2F10D94B2F1B0
:10E060000D94B2F10D94B2F10D94B2F10D94B2F1A0
:10E070000D94B2F10D94B2F10D94B2F10D94B2F190
:10E080000D94B2F10D94B2F10D94B2F10D94B2F180
:10E090000D94B2F10D94B2F10D94B2F10D94B2F170
:10E0A0000D94B2F10D94B2F10D94B2F10D94B2F160
:10E0B0000D94B2F10D94B2F10D94B2F10D94B2F150
:10E0C0000D94B2F10D94B2F10D94B2F10D94B2F140
:10E0D0000D94B2F10D94B2F10D94B2F10D94B2F130
:10E0E0000D94B2F141546D656761323536300041AF
:10E0F000726475696E6F206578706C6F72657220DE
:10E1000073746B3530305632206279204D4C530099
:10E11000426F6F746C6F616465723E004875683F52
:10E1200000436F6D70696C6564206F6E203D200048
:10E130004350552054797065202020203D20005FF9
:10E140005F4156525F415243485F5F3D2000415658
:10E1500052204C696243205665723D20004743437C
:10E160002056657273696F6E203D20004350552024
:10E1700049442020202020203D20004C6F7720663D
:10E18000757365202020203D20004869676820665F
:10E190007573652020203D200045787420667573D6
:10E1A00065202020203D20004C6F636B2066757336
:10E1B000652020203D20004D617220203720323024
:10E1C000313300312E362E3800342E332E350056A2
:10E1D00023202020414444522020206F7020636F70
:10E1E00064652020202020696E73747275637469E1
:10E1F0006F6E2061646472202020496E74657272B3
:10E20000757074006E6F20766563746F7200726A49
:10E210006D702020006A6D70200057686174207056
:10E220006F72743A00506F7274206E6F7420737541
:10E2300070706F72746564004D7573742062652030
:10E2400061206C6574746572002000577269747483
:10E25000696E672045450052656164696E672045B7
:10E26000450045452065727220636E743D00504F35
:10E27000525400303D5A65726F2061646472003FF1
:10E280003D43505520737461747300403D454550C3
:10E29000524F4D207465737400423D426C696E6B41
:10E2A000204C454400453D44756D70204545505215
:10E2B0004F4D00463D44756D7020464C415348001B
:10E2C000483D48656C70004C3D4C69737420492F83
:10E2D0004F20506F72747300513D51756974005234
:10E2E0003D44756D702052414D00563D73686F7707
:10E2F00020696E7465727275707420566563746FF0
:10E30000727300593D506F727420626C696E6B00BD
:10E310002A0011241FBECFEFD1E2DEBFCDBF01E046
:10E320000CBF12E0A0E0B2E0EEE1FDEF03E00BBFB6
:10E3300002C007900D92A030B107D9F712E0A0E01B
:10E34000B2E001C01D92AE30B107E1F70F9460F367
:10E350000D948DFE01E20EBF0FEF0DBF11241FBE05
:10E360000D9460F30D9400F020E030E040ED57E0B4
:10E3700005C0FA013197F1F72F5F3F4F2817390792
:10E38000C0F308959C01260F311DC901A0E0B0E043
:10E390002F5F3F4FABBFFC018791882361F08093D3
:10E3A000C6008091C00086FFFCCF8091C0008064D1
:10E3B0008093C000EACF08958DE08093C6008091DD
:10E3C000C00086FFFCCF8091C00080648093C000B5
:10E3D0008AE08093C6008091C00086FFFCCF8091C8
:10E3E000C00080648093C00008950F94C2F10F9420
:10E3F000DCF10895FC019081992359F09093C600B7
:10E400008091C00086FFFCCF8091C0008064809323
:10E41000C0003196992379F70895282F982F929567
:10E420009F70892F805D8A3308F0895F8093C600D2
:10E430008091C00086FFFCCF8091C00080648093F3
:10E44000C000822F8F70982F905D9A3308F0995FEB
:10E450009093C6008091C00086FFFCCF8091C000E1
:10E4600080648093C00008959C01FB01853691056E
:10E470001CF46330710594F0C90164E670E00F94F8
:10E480002EFE605D7F4F6093C6008091C00086FFC6
:10E49000FCCF8091C00080648093C0002B30310598
:10E4A00014F43297B4F0C90164E670E00F942EFEC4
:10E4B0006AE070E00F942EFE605D7F4F6093C600AF
:10E4C0008091C00086FFFCCF8091C0008064809363
:10E4D000C000C9016AE070E00F942EFEC0968093E0
:10E4E000C6008091C00086FFFCCF8091C000806490
:10E4F0008093C00008951F93182F8EE692EE60E07F
:10E500000F94C2F11093C6008091C00086FFFCCF2B
:10E510008091C00080648093C0000F94DCF11F9153
:10E5200008952F923F924F925F926F927F928F92B7
:10E530009F92AF92BF92CF92DF92EF92FF920F9392
:10E540001F93DF93CF93CDB7DEB762970FB6F894E2
:10E55000DEBF0FBECDBF382E622ECA01DB015C01CB
:10E560006D01772420E2222E2E010894411C511CBB
:10E570008BC081E0A81680E0B80681E0C80680E084
:10E58000D80628F0C601AA27BB270F940DF2BB2797
:10E59000AD2D9C2D8B2D0F940DF28A2D0F940DF225
:10E5A0002092C6008091C00086FFFCCF8091C00001
:10E5B00080648093C0009DE29093C6008091C0006B
:10E5C00086FFFCCF8091C00080648093C0002092C1
:10E5D000C6008091C00086FFFCCF8091C00080649F
:10E5E0008093C00019828601750188249924A1E0D6
:10E5F0003A1651F03A1620F0B2E03B1661F409C029
:10E600000BBFF701779007C0C7010F9477FE782EF4
:10E6100002C0F7017080872D0F940DF22092C60082
:10E620008091C00086FFFCCF8091C0008064809301
:10E63000C000872D8052F401EF70F0708F3520F408
:10E64000E40DF51D708204C0E40DF51D8EE280839B
:10E650000894E11CF11C011D111D0894811C911CE2
:10E6600090E18916910409F0C2CF80E190E0A0E02A
:10E67000B0E0A80EB91ECA1EDB1E198AC2010F9493
:10E68000FAF10F94DCF16A94662009F072CF629679
:10E690000FB6F894DEBF0FBECDBFCF91DF911F91B3
:10E6A0000F91FF90EF90DF90CF90BF90AF909F9031
:10E6B0008F907F906F905F904F903F902F90089534
:10E6C0002F923F924F925F926F927F928F929F9282
:10E6D000AF92BF92CF92DF92EF92FF920F931F9370
